{
	"solidityTutorial/test.sol": {
		"CoinTest": {
			"abi": [
				{
					"inputs": [],
					"stateMutability": "nonpayable",
					"type": "constructor"
				},
				{
					"inputs": [
						{
							"internalType": "uint256",
							"name": "requested",
							"type": "uint256"
						},
						{
							"internalType": "uint256",
							"name": "available",
							"type": "uint256"
						}
					],
					"name": "InsufficientBalance",
					"type": "error"
				},
				{
					"anonymous": false,
					"inputs": [
						{
							"indexed": false,
							"internalType": "address",
							"name": "from",
							"type": "address"
						},
						{
							"indexed": false,
							"internalType": "address",
							"name": "to",
							"type": "address"
						},
						{
							"indexed": false,
							"internalType": "uint256",
							"name": "amount",
							"type": "uint256"
						}
					],
					"name": "Sent",
					"type": "event"
				},
				{
					"inputs": [
						{
							"internalType": "address",
							"name": "receiver",
							"type": "address"
						},
						{
							"internalType": "uint256",
							"name": "amount",
							"type": "uint256"
						}
					],
					"name": "mint",
					"outputs": [],
					"stateMutability": "nonpayable",
					"type": "function"
				},
				{
					"inputs": [
						{
							"internalType": "address",
							"name": "receiver",
							"type": "address"
						},
						{
							"internalType": "uint256",
							"name": "amount",
							"type": "uint256"
						}
					],
					"name": "transfer",
					"outputs": [],
					"stateMutability": "nonpayable",
					"type": "function"
				}
			],
			"devdoc": {
				"kind": "dev",
				"methods": {},
				"version": 1
			},
			"evm": {
				"assembly": "    /* \"solidityTutorial/test.sol\":62:904  contract CoinTest {... */\n  mstore(0x40, 0x80)\n    /* \"solidityTutorial/test.sol\":208:258  constructor() {... */\n  callvalue\n  dup1\n  iszero\n  tag_1\n  jumpi\n  0x00\n  dup1\n  revert\ntag_1:\n  pop\n    /* \"solidityTutorial/test.sol\":241:251  msg.sender */\n  caller\n    /* \"solidityTutorial/test.sol\":232:238  minter */\n  0x00\n  dup1\n    /* \"solidityTutorial/test.sol\":232:251  minter = msg.sender */\n  0x0100\n  exp\n  dup2\n  sload\n  dup2\n  0xffffffffffffffffffffffffffffffffffffffff\n  mul\n  not\n  and\n  swap1\n  dup4\n  0xffffffffffffffffffffffffffffffffffffffff\n  and\n  mul\n  or\n  swap1\n  sstore\n  pop\n    /* \"solidityTutorial/test.sol\":62:904  contract CoinTest {... */\n  dataSize(sub_0)\n  dup1\n  dataOffset(sub_0)\n  0x00\n  codecopy\n  0x00\n  return\nstop\n\nsub_0: assembly {\n        /* \"solidityTutorial/test.sol\":62:904  contract CoinTest {... */\n      mstore(0x40, 0x80)\n      callvalue\n      dup1\n      iszero\n      tag_1\n      jumpi\n      0x00\n      dup1\n      revert\n    tag_1:\n      pop\n      jumpi(tag_2, lt(calldatasize, 0x04))\n      shr(0xe0, calldataload(0x00))\n      dup1\n      0x40c10f19\n      eq\n      tag_3\n      jumpi\n      dup1\n      0xa9059cbb\n      eq\n      tag_4\n      jumpi\n    tag_2:\n      0x00\n      dup1\n      revert\n        /* \"solidityTutorial/test.sol\":264:460  function mint(address receiver, uint amount) public {... */\n    tag_3:\n      tag_5\n      0x04\n      dup1\n      calldatasize\n      sub\n      dup2\n      add\n      swap1\n      tag_6\n      swap2\n      swap1\n      tag_7\n      jump\t// in\n    tag_6:\n      tag_8\n      jump\t// in\n    tag_5:\n      stop\n        /* \"solidityTutorial/test.sol\":530:902  function transfer(address receiver, uint amount) public {... */\n    tag_4:\n      tag_9\n      0x04\n      dup1\n      calldatasize\n      sub\n      dup2\n      add\n      swap1\n      tag_10\n      swap2\n      swap1\n      tag_7\n      jump\t// in\n    tag_10:\n      tag_11\n      jump\t// in\n    tag_9:\n      stop\n        /* \"solidityTutorial/test.sol\":264:460  function mint(address receiver, uint amount) public {... */\n    tag_8:\n        /* \"solidityTutorial/test.sol\":348:354  minter */\n      0x00\n      dup1\n      sload\n      swap1\n      0x0100\n      exp\n      swap1\n      div\n      0xffffffffffffffffffffffffffffffffffffffff\n      and\n        /* \"solidityTutorial/test.sol\":334:354  msg.sender == minter */\n      0xffffffffffffffffffffffffffffffffffffffff\n      and\n        /* \"solidityTutorial/test.sol\":334:344  msg.sender */\n      caller\n        /* \"solidityTutorial/test.sol\":334:354  msg.sender == minter */\n      0xffffffffffffffffffffffffffffffffffffffff\n      and\n      eq\n        /* \"solidityTutorial/test.sol\":326:415  require(msg.sender == minter, \"only the creator of the contract could create new tokens\") */\n      tag_13\n      jumpi\n      mload(0x40)\n      0x08c379a000000000000000000000000000000000000000000000000000000000\n      dup2\n      mstore\n      0x04\n      add\n      tag_14\n      swap1\n      tag_15\n      jump\t// in\n    tag_14:\n      mload(0x40)\n      dup1\n      swap2\n      sub\n      swap1\n      revert\n    tag_13:\n        /* \"solidityTutorial/test.sol\":447:453  amount */\n      dup1\n        /* \"solidityTutorial/test.sol\":425:433  balances */\n      0x01\n        /* \"solidityTutorial/test.sol\":425:443  balances[receiver] */\n      0x00\n        /* \"solidityTutorial/test.sol\":434:442  receiver */\n      dup5\n        /* \"solidityTutorial/test.sol\":425:443  balances[receiver] */\n      0xffffffffffffffffffffffffffffffffffffffff\n      and\n      0xffffffffffffffffffffffffffffffffffffffff\n      and\n      dup2\n      mstore\n      0x20\n      add\n      swap1\n      dup2\n      mstore\n      0x20\n      add\n      0x00\n      keccak256\n      0x00\n        /* \"solidityTutorial/test.sol\":425:453  balances[receiver] += amount */\n      dup3\n      dup3\n      sload\n      tag_16\n      swap2\n      swap1\n      tag_17\n      jump\t// in\n    tag_16:\n      swap3\n      pop\n      pop\n      dup2\n      swap1\n      sstore\n      pop\n        /* \"solidityTutorial/test.sol\":264:460  function mint(address receiver, uint amount) public {... */\n      pop\n      pop\n      jump\t// out\n        /* \"solidityTutorial/test.sol\":530:902  function transfer(address receiver, uint amount) public {... */\n    tag_11:\n        /* \"solidityTutorial/test.sol\":609:617  balances */\n      0x01\n        /* \"solidityTutorial/test.sol\":609:629  balances[msg.sender] */\n      0x00\n        /* \"solidityTutorial/test.sol\":618:628  msg.sender */\n      caller\n        /* \"solidityTutorial/test.sol\":609:629  balances[msg.sender] */\n      0xffffffffffffffffffffffffffffffffffffffff\n      and\n      0xffffffffffffffffffffffffffffffffffffffff\n      and\n      dup2\n      mstore\n      0x20\n      add\n      swap1\n      dup2\n      mstore\n      0x20\n      add\n      0x00\n      keccak256\n      sload\n        /* \"solidityTutorial/test.sol\":600:606  amount */\n      dup2\n        /* \"solidityTutorial/test.sol\":600:629  amount > balances[msg.sender] */\n      gt\n        /* \"solidityTutorial/test.sol\":596:769  if (amount > balances[msg.sender]){... */\n      iszero\n      tag_19\n      jumpi\n        /* \"solidityTutorial/test.sol\":700:706  amount */\n      dup1\n        /* \"solidityTutorial/test.sol\":736:744  balances */\n      0x01\n        /* \"solidityTutorial/test.sol\":736:756  balances[msg.sender] */\n      0x00\n        /* \"solidityTutorial/test.sol\":745:755  msg.sender */\n      caller\n        /* \"solidityTutorial/test.sol\":736:756  balances[msg.sender] */\n      0xffffffffffffffffffffffffffffffffffffffff\n      and\n      0xffffffffffffffffffffffffffffffffffffffff\n      and\n      dup2\n      mstore\n      0x20\n      add\n      swap1\n      dup2\n      mstore\n      0x20\n      add\n      0x00\n      keccak256\n      sload\n        /* \"solidityTutorial/test.sol\":651:758  InsufficientBalance({... */\n      mload(0x40)\n      0xcf47918100000000000000000000000000000000000000000000000000000000\n      dup2\n      mstore\n      0x04\n      add\n      tag_20\n      swap3\n      swap2\n      swap1\n      tag_21\n      jump\t// in\n    tag_20:\n      mload(0x40)\n      dup1\n      swap2\n      sub\n      swap1\n      revert\n        /* \"solidityTutorial/test.sol\":596:769  if (amount > balances[msg.sender]){... */\n    tag_19:\n        /* \"solidityTutorial/test.sol\":802:808  amount */\n      dup1\n        /* \"solidityTutorial/test.sol\":778:786  balances */\n      0x01\n        /* \"solidityTutorial/test.sol\":778:798  balances[msg.sender] */\n      0x00\n        /* \"solidityTutorial/test.sol\":787:797  msg.sender */\n      caller\n        /* \"solidityTutorial/test.sol\":778:798  balances[msg.sender] */\n      0xffffffffffffffffffffffffffffffffffffffff\n      and\n      0xffffffffffffffffffffffffffffffffffffffff\n      and\n      dup2\n      mstore\n      0x20\n      add\n      swap1\n      dup2\n      mstore\n      0x20\n      add\n      0x00\n      keccak256\n      0x00\n        /* \"solidityTutorial/test.sol\":778:808  balances[msg.sender] -= amount */\n      dup3\n      dup3\n      sload\n      tag_22\n      swap2\n      swap1\n      tag_23\n      jump\t// in\n    tag_22:\n      swap3\n      pop\n      pop\n      dup2\n      swap1\n      sstore\n      pop\n        /* \"solidityTutorial/test.sol\":840:846  amount */\n      dup1\n        /* \"solidityTutorial/test.sol\":818:826  balances */\n      0x01\n        /* \"solidityTutorial/test.sol\":818:836  balances[receiver] */\n      0x00\n        /* \"solidityTutorial/test.sol\":827:835  receiver */\n      dup5\n        /* \"solidityTutorial/test.sol\":818:836  balances[receiver] */\n      0xffffffffffffffffffffffffffffffffffffffff\n      and\n      0xffffffffffffffffffffffffffffffffffffffff\n      and\n      dup2\n      mstore\n      0x20\n      add\n      swap1\n      dup2\n      mstore\n      0x20\n      add\n      0x00\n      keccak256\n      0x00\n        /* \"solidityTutorial/test.sol\":818:846  balances[receiver] += amount */\n      dup3\n      dup3\n      sload\n      tag_24\n      swap2\n      swap1\n      tag_17\n      jump\t// in\n    tag_24:\n      swap3\n      pop\n      pop\n      dup2\n      swap1\n      sstore\n      pop\n        /* \"solidityTutorial/test.sol\":861:895  Sent(msg.sender, receiver, amount) */\n      0x3990db2d31862302a685e8086b5755072a6e2b5b780af1ee81ece35ee3cd3345\n        /* \"solidityTutorial/test.sol\":866:876  msg.sender */\n      caller\n        /* \"solidityTutorial/test.sol\":878:886  receiver */\n      dup4\n        /* \"solidityTutorial/test.sol\":888:894  amount */\n      dup4\n        /* \"solidityTutorial/test.sol\":861:895  Sent(msg.sender, receiver, amount) */\n      mload(0x40)\n      tag_25\n      swap4\n      swap3\n      swap2\n      swap1\n      tag_26\n      jump\t// in\n    tag_25:\n      mload(0x40)\n      dup1\n      swap2\n      sub\n      swap1\n      log1\n        /* \"solidityTutorial/test.sol\":530:902  function transfer(address receiver, uint amount) public {... */\n      pop\n      pop\n      jump\t// out\n        /* \"#utility.yul\":7:146   */\n    tag_28:\n        /* \"#utility.yul\":53:58   */\n      0x00\n        /* \"#utility.yul\":91:97   */\n      dup2\n        /* \"#utility.yul\":78:98   */\n      calldataload\n        /* \"#utility.yul\":69:98   */\n      swap1\n      pop\n        /* \"#utility.yul\":107:140   */\n      tag_30\n        /* \"#utility.yul\":134:139   */\n      dup2\n        /* \"#utility.yul\":107:140   */\n      tag_31\n      jump\t// in\n    tag_30:\n        /* \"#utility.yul\":59:146   */\n      swap3\n      swap2\n      pop\n      pop\n      jump\t// out\n        /* \"#utility.yul\":152:291   */\n    tag_32:\n        /* \"#utility.yul\":198:203   */\n      0x00\n        /* \"#utility.yul\":236:242   */\n      dup2\n        /* \"#utility.yul\":223:243   */\n      calldataload\n        /* \"#utility.yul\":214:243   */\n      swap1\n      pop\n        /* \"#utility.yul\":252:285   */\n      tag_34\n        /* \"#utility.yul\":279:284   */\n      dup2\n        /* \"#utility.yul\":252:285   */\n      tag_35\n      jump\t// in\n    tag_34:\n        /* \"#utility.yul\":204:291   */\n      swap3\n      swap2\n      pop\n      pop\n      jump\t// out\n        /* \"#utility.yul\":297:704   */\n    tag_7:\n        /* \"#utility.yul\":365:371   */\n      0x00\n        /* \"#utility.yul\":373:379   */\n      dup1\n        /* \"#utility.yul\":422:424   */\n      0x40\n        /* \"#utility.yul\":410:419   */\n      dup4\n        /* \"#utility.yul\":401:408   */\n      dup6\n        /* \"#utility.yul\":397:420   */\n      sub\n        /* \"#utility.yul\":393:425   */\n      slt\n        /* \"#utility.yul\":390:392   */\n      iszero\n      tag_37\n      jumpi\n        /* \"#utility.yul\":438:439   */\n      0x00\n        /* \"#utility.yul\":435:436   */\n      dup1\n        /* \"#utility.yul\":428:440   */\n      revert\n        /* \"#utility.yul\":390:392   */\n    tag_37:\n        /* \"#utility.yul\":481:482   */\n      0x00\n        /* \"#utility.yul\":506:559   */\n      tag_38\n        /* \"#utility.yul\":551:558   */\n      dup6\n        /* \"#utility.yul\":542:548   */\n      dup3\n        /* \"#utility.yul\":531:540   */\n      dup7\n        /* \"#utility.yul\":527:549   */\n      add\n        /* \"#utility.yul\":506:559   */\n      tag_28\n      jump\t// in\n    tag_38:\n        /* \"#utility.yul\":496:559   */\n      swap3\n      pop\n        /* \"#utility.yul\":452:569   */\n      pop\n        /* \"#utility.yul\":608:610   */\n      0x20\n        /* \"#utility.yul\":634:687   */\n      tag_39\n        /* \"#utility.yul\":679:686   */\n      dup6\n        /* \"#utility.yul\":670:676   */\n      dup3\n        /* \"#utility.yul\":659:668   */\n      dup7\n        /* \"#utility.yul\":655:677   */\n      add\n        /* \"#utility.yul\":634:687   */\n      tag_32\n      jump\t// in\n    tag_39:\n        /* \"#utility.yul\":624:687   */\n      swap2\n      pop\n        /* \"#utility.yul\":579:697   */\n      pop\n        /* \"#utility.yul\":380:704   */\n      swap3\n      pop\n      swap3\n      swap1\n      pop\n      jump\t// out\n        /* \"#utility.yul\":710:828   */\n    tag_40:\n        /* \"#utility.yul\":797:821   */\n      tag_42\n        /* \"#utility.yul\":815:820   */\n      dup2\n        /* \"#utility.yul\":797:821   */\n      tag_43\n      jump\t// in\n    tag_42:\n        /* \"#utility.yul\":792:795   */\n      dup3\n        /* \"#utility.yul\":785:822   */\n      mstore\n        /* \"#utility.yul\":775:828   */\n      pop\n      pop\n      jump\t// out\n        /* \"#utility.yul\":834:1200   */\n    tag_44:\n        /* \"#utility.yul\":976:979   */\n      0x00\n        /* \"#utility.yul\":997:1064   */\n      tag_46\n        /* \"#utility.yul\":1061:1063   */\n      0x38\n        /* \"#utility.yul\":1056:1059   */\n      dup4\n        /* \"#utility.yul\":997:1064   */\n      tag_47\n      jump\t// in\n    tag_46:\n        /* \"#utility.yul\":990:1064   */\n      swap2\n      pop\n        /* \"#utility.yul\":1073:1166   */\n      tag_48\n        /* \"#utility.yul\":1162:1165   */\n      dup3\n        /* \"#utility.yul\":1073:1166   */\n      tag_49\n      jump\t// in\n    tag_48:\n        /* \"#utility.yul\":1191:1193   */\n      0x40\n        /* \"#utility.yul\":1186:1189   */\n      dup3\n        /* \"#utility.yul\":1182:1194   */\n      add\n        /* \"#utility.yul\":1175:1194   */\n      swap1\n      pop\n        /* \"#utility.yul\":980:1200   */\n      swap2\n      swap1\n      pop\n      jump\t// out\n        /* \"#utility.yul\":1206:1324   */\n    tag_50:\n        /* \"#utility.yul\":1293:1317   */\n      tag_52\n        /* \"#utility.yul\":1311:1316   */\n      dup2\n        /* \"#utility.yul\":1293:1317   */\n      tag_53\n      jump\t// in\n    tag_52:\n        /* \"#utility.yul\":1288:1291   */\n      dup3\n        /* \"#utility.yul\":1281:1318   */\n      mstore\n        /* \"#utility.yul\":1271:1324   */\n      pop\n      pop\n      jump\t// out\n        /* \"#utility.yul\":1330:1772   */\n    tag_26:\n        /* \"#utility.yul\":1479:1483   */\n      0x00\n        /* \"#utility.yul\":1517:1519   */\n      0x60\n        /* \"#utility.yul\":1506:1515   */\n      dup3\n        /* \"#utility.yul\":1502:1520   */\n      add\n        /* \"#utility.yul\":1494:1520   */\n      swap1\n      pop\n        /* \"#utility.yul\":1530:1601   */\n      tag_55\n        /* \"#utility.yul\":1598:1599   */\n      0x00\n        /* \"#utility.yul\":1587:1596   */\n      dup4\n        /* \"#utility.yul\":1583:1600   */\n      add\n        /* \"#utility.yul\":1574:1580   */\n      dup7\n        /* \"#utility.yul\":1530:1601   */\n      tag_40\n      jump\t// in\n    tag_55:\n        /* \"#utility.yul\":1611:1683   */\n      tag_56\n        /* \"#utility.yul\":1679:1681   */\n      0x20\n        /* \"#utility.yul\":1668:1677   */\n      dup4\n        /* \"#utility.yul\":1664:1682   */\n      add\n        /* \"#utility.yul\":1655:1661   */\n      dup6\n        /* \"#utility.yul\":1611:1683   */\n      tag_40\n      jump\t// in\n    tag_56:\n        /* \"#utility.yul\":1693:1765   */\n      tag_57\n        /* \"#utility.yul\":1761:1763   */\n      0x40\n        /* \"#utility.yul\":1750:1759   */\n      dup4\n        /* \"#utility.yul\":1746:1764   */\n      add\n        /* \"#utility.yul\":1737:1743   */\n      dup5\n        /* \"#utility.yul\":1693:1765   */\n      tag_50\n      jump\t// in\n    tag_57:\n        /* \"#utility.yul\":1484:1772   */\n      swap5\n      swap4\n      pop\n      pop\n      pop\n      pop\n      jump\t// out\n        /* \"#utility.yul\":1778:2197   */\n    tag_15:\n        /* \"#utility.yul\":1944:1948   */\n      0x00\n        /* \"#utility.yul\":1982:1984   */\n      0x20\n        /* \"#utility.yul\":1971:1980   */\n      dup3\n        /* \"#utility.yul\":1967:1985   */\n      add\n        /* \"#utility.yul\":1959:1985   */\n      swap1\n      pop\n        /* \"#utility.yul\":2031:2040   */\n      dup2\n        /* \"#utility.yul\":2025:2029   */\n      dup2\n        /* \"#utility.yul\":2021:2041   */\n      sub\n        /* \"#utility.yul\":2017:2018   */\n      0x00\n        /* \"#utility.yul\":2006:2015   */\n      dup4\n        /* \"#utility.yul\":2002:2019   */\n      add\n        /* \"#utility.yul\":1995:2042   */\n      mstore\n        /* \"#utility.yul\":2059:2190   */\n      tag_59\n        /* \"#utility.yul\":2185:2189   */\n      dup2\n        /* \"#utility.yul\":2059:2190   */\n      tag_44\n      jump\t// in\n    tag_59:\n        /* \"#utility.yul\":2051:2190   */\n      swap1\n      pop\n        /* \"#utility.yul\":1949:2197   */\n      swap2\n      swap1\n      pop\n      jump\t// out\n        /* \"#utility.yul\":2203:2535   */\n    tag_21:\n        /* \"#utility.yul\":2324:2328   */\n      0x00\n        /* \"#utility.yul\":2362:2364   */\n      0x40\n        /* \"#utility.yul\":2351:2360   */\n      dup3\n        /* \"#utility.yul\":2347:2365   */\n      add\n        /* \"#utility.yul\":2339:2365   */\n      swap1\n      pop\n        /* \"#utility.yul\":2375:2446   */\n      tag_61\n        /* \"#utility.yul\":2443:2444   */\n      0x00\n        /* \"#utility.yul\":2432:2441   */\n      dup4\n        /* \"#utility.yul\":2428:2445   */\n      add\n        /* \"#utility.yul\":2419:2425   */\n      dup6\n        /* \"#utility.yul\":2375:2446   */\n      tag_50\n      jump\t// in\n    tag_61:\n        /* \"#utility.yul\":2456:2528   */\n      tag_62\n        /* \"#utility.yul\":2524:2526   */\n      0x20\n        /* \"#utility.yul\":2513:2522   */\n      dup4\n        /* \"#utility.yul\":2509:2527   */\n      add\n        /* \"#utility.yul\":2500:2506   */\n      dup5\n        /* \"#utility.yul\":2456:2528   */\n      tag_50\n      jump\t// in\n    tag_62:\n        /* \"#utility.yul\":2329:2535   */\n      swap4\n      swap3\n      pop\n      pop\n      pop\n      jump\t// out\n        /* \"#utility.yul\":2541:2710   */\n    tag_47:\n        /* \"#utility.yul\":2625:2636   */\n      0x00\n        /* \"#utility.yul\":2659:2665   */\n      dup3\n        /* \"#utility.yul\":2654:2657   */\n      dup3\n        /* \"#utility.yul\":2647:2666   */\n      mstore\n        /* \"#utility.yul\":2699:2703   */\n      0x20\n        /* \"#utility.yul\":2694:2697   */\n      dup3\n        /* \"#utility.yul\":2690:2704   */\n      add\n        /* \"#utility.yul\":2675:2704   */\n      swap1\n      pop\n        /* \"#utility.yul\":2637:2710   */\n      swap3\n      swap2\n      pop\n      pop\n      jump\t// out\n        /* \"#utility.yul\":2716:3021   */\n    tag_17:\n        /* \"#utility.yul\":2756:2759   */\n      0x00\n        /* \"#utility.yul\":2775:2795   */\n      tag_65\n        /* \"#utility.yul\":2793:2794   */\n      dup3\n        /* \"#utility.yul\":2775:2795   */\n      tag_53\n      jump\t// in\n    tag_65:\n        /* \"#utility.yul\":2770:2795   */\n      swap2\n      pop\n        /* \"#utility.yul\":2809:2829   */\n      tag_66\n        /* \"#utility.yul\":2827:2828   */\n      dup4\n        /* \"#utility.yul\":2809:2829   */\n      tag_53\n      jump\t// in\n    tag_66:\n        /* \"#utility.yul\":2804:2829   */\n      swap3\n      pop\n        /* \"#utility.yul\":2963:2964   */\n      dup3\n        /* \"#utility.yul\":2895:2961   */\n      0xffffffffffffffffffffffffffffffffffffffffffffffffffffffffffffffff\n        /* \"#utility.yul\":2891:2965   */\n      sub\n        /* \"#utility.yul\":2888:2889   */\n      dup3\n        /* \"#utility.yul\":2885:2966   */\n      gt\n        /* \"#utility.yul\":2882:2884   */\n      iszero\n      tag_67\n      jumpi\n        /* \"#utility.yul\":2969:2987   */\n      tag_68\n      tag_69\n      jump\t// in\n    tag_68:\n        /* \"#utility.yul\":2882:2884   */\n    tag_67:\n        /* \"#utility.yul\":3013:3014   */\n      dup3\n        /* \"#utility.yul\":3010:3011   */\n      dup3\n        /* \"#utility.yul\":3006:3015   */\n      add\n        /* \"#utility.yul\":2999:3015   */\n      swap1\n      pop\n        /* \"#utility.yul\":2760:3021   */\n      swap3\n      swap2\n      pop\n      pop\n      jump\t// out\n        /* \"#utility.yul\":3027:3218   */\n    tag_23:\n        /* \"#utility.yul\":3067:3071   */\n      0x00\n        /* \"#utility.yul\":3087:3107   */\n      tag_71\n        /* \"#utility.yul\":3105:3106   */\n      dup3\n        /* \"#utility.yul\":3087:3107   */\n      tag_53\n      jump\t// in\n    tag_71:\n        /* \"#utility.yul\":3082:3107   */\n      swap2\n      pop\n        /* \"#utility.yul\":3121:3141   */\n      tag_72\n        /* \"#utility.yul\":3139:3140   */\n      dup4\n        /* \"#utility.yul\":3121:3141   */\n      tag_53\n      jump\t// in\n    tag_72:\n        /* \"#utility.yul\":3116:3141   */\n      swap3\n      pop\n        /* \"#utility.yul\":3160:3161   */\n      dup3\n        /* \"#utility.yul\":3157:3158   */\n      dup3\n        /* \"#utility.yul\":3154:3162   */\n      lt\n        /* \"#utility.yul\":3151:3153   */\n      iszero\n      tag_73\n      jumpi\n        /* \"#utility.yul\":3165:3183   */\n      tag_74\n      tag_69\n      jump\t// in\n    tag_74:\n        /* \"#utility.yul\":3151:3153   */\n    tag_73:\n        /* \"#utility.yul\":3210:3211   */\n      dup3\n        /* \"#utility.yul\":3207:3208   */\n      dup3\n        /* \"#utility.yul\":3203:3212   */\n      sub\n        /* \"#utility.yul\":3195:3212   */\n      swap1\n      pop\n        /* \"#utility.yul\":3072:3218   */\n      swap3\n      swap2\n      pop\n      pop\n      jump\t// out\n        /* \"#utility.yul\":3224:3320   */\n    tag_43:\n        /* \"#utility.yul\":3261:3268   */\n      0x00\n        /* \"#utility.yul\":3290:3314   */\n      tag_76\n        /* \"#utility.yul\":3308:3313   */\n      dup3\n        /* \"#utility.yul\":3290:3314   */\n      tag_77\n      jump\t// in\n    tag_76:\n        /* \"#utility.yul\":3279:3314   */\n      swap1\n      pop\n        /* \"#utility.yul\":3269:3320   */\n      swap2\n      swap1\n      pop\n      jump\t// out\n        /* \"#utility.yul\":3326:3452   */\n    tag_77:\n        /* \"#utility.yul\":3363:3370   */\n      0x00\n        /* \"#utility.yul\":3403:3445   */\n      0xffffffffffffffffffffffffffffffffffffffff\n        /* \"#utility.yul\":3396:3401   */\n      dup3\n        /* \"#utility.yul\":3392:3446   */\n      and\n        /* \"#utility.yul\":3381:3446   */\n      swap1\n      pop\n        /* \"#utility.yul\":3371:3452   */\n      swap2\n      swap1\n      pop\n      jump\t// out\n        /* \"#utility.yul\":3458:3535   */\n    tag_53:\n        /* \"#utility.yul\":3495:3502   */\n      0x00\n        /* \"#utility.yul\":3524:3529   */\n      dup2\n        /* \"#utility.yul\":3513:3529   */\n      swap1\n      pop\n        /* \"#utility.yul\":3503:3535   */\n      swap2\n      swap1\n      pop\n      jump\t// out\n        /* \"#utility.yul\":3541:3721   */\n    tag_69:\n        /* \"#utility.yul\":3589:3666   */\n      0x4e487b7100000000000000000000000000000000000000000000000000000000\n        /* \"#utility.yul\":3586:3587   */\n      0x00\n        /* \"#utility.yul\":3579:3667   */\n      mstore\n        /* \"#utility.yul\":3686:3690   */\n      0x11\n        /* \"#utility.yul\":3683:3684   */\n      0x04\n        /* \"#utility.yul\":3676:3691   */\n      mstore\n        /* \"#utility.yul\":3710:3714   */\n      0x24\n        /* \"#utility.yul\":3707:3708   */\n      0x00\n        /* \"#utility.yul\":3700:3715   */\n      revert\n        /* \"#utility.yul\":3727:3970   */\n    tag_49:\n        /* \"#utility.yul\":3867:3901   */\n      0x6f6e6c79207468652063726561746f72206f662074686520636f6e7472616374\n        /* \"#utility.yul\":3863:3864   */\n      0x00\n        /* \"#utility.yul\":3855:3861   */\n      dup3\n        /* \"#utility.yul\":3851:3865   */\n      add\n        /* \"#utility.yul\":3844:3902   */\n      mstore\n        /* \"#utility.yul\":3936:3962   */\n      0x20636f756c6420637265617465206e657720746f6b656e730000000000000000\n        /* \"#utility.yul\":3931:3933   */\n      0x20\n        /* \"#utility.yul\":3923:3929   */\n      dup3\n        /* \"#utility.yul\":3919:3934   */\n      add\n        /* \"#utility.yul\":3912:3963   */\n      mstore\n        /* \"#utility.yul\":3833:3970   */\n      pop\n      jump\t// out\n        /* \"#utility.yul\":3976:4098   */\n    tag_31:\n        /* \"#utility.yul\":4049:4073   */\n      tag_83\n        /* \"#utility.yul\":4067:4072   */\n      dup2\n        /* \"#utility.yul\":4049:4073   */\n      tag_43\n      jump\t// in\n    tag_83:\n        /* \"#utility.yul\":4042:4047   */\n      dup2\n        /* \"#utility.yul\":4039:4074   */\n      eq\n        /* \"#utility.yul\":4029:4031   */\n      tag_84\n      jumpi\n        /* \"#utility.yul\":4088:4089   */\n      0x00\n        /* \"#utility.yul\":4085:4086   */\n      dup1\n        /* \"#utility.yul\":4078:4090   */\n      revert\n        /* \"#utility.yul\":4029:4031   */\n    tag_84:\n        /* \"#utility.yul\":4019:4098   */\n      pop\n      jump\t// out\n        /* \"#utility.yul\":4104:4226   */\n    tag_35:\n        /* \"#utility.yul\":4177:4201   */\n      tag_86\n        /* \"#utility.yul\":4195:4200   */\n      dup2\n        /* \"#utility.yul\":4177:4201   */\n      tag_53\n      jump\t// in\n    tag_86:\n        /* \"#utility.yul\":4170:4175   */\n      dup2\n        /* \"#utility.yul\":4167:4202   */\n      eq\n        /* \"#utility.yul\":4157:4159   */\n      tag_87\n      jumpi\n        /* \"#utility.yul\":4216:4217   */\n      0x00\n        /* \"#utility.yul\":4213:4214   */\n      dup1\n        /* \"#utility.yul\":4206:4218   */\n      revert\n        /* \"#utility.yul\":4157:4159   */\n    tag_87:\n        /* \"#utility.yul\":4147:4226   */\n      pop\n      jump\t// out\n\n    auxdata: 0xa264697066735822122093986de62abeaa2b095644bb1b4ea98717b8814147fcf6f544564366ca66ea2e64736f6c63430008040033\n}\n",
				"bytecode": {
					"linkReferences": {},
					"object": "608060405234801561001057600080fd5b50336000806101000a81548173ffffffffffffffffffffffffffffffffffffffff021916908373ffffffffffffffffffffffffffffffffffffffff1602179055506105eb806100606000396000f3fe608060405234801561001057600080fd5b50600436106100365760003560e01c806340c10f191461003b578063a9059cbb14610057575b600080fd5b61005560048036038101906100509190610335565b610073565b005b610071600480360381019061006c9190610335565b61015b565b005b60008054906101000a900473ffffffffffffffffffffffffffffffffffffffff1673ffffffffffffffffffffffffffffffffffffffff163373ffffffffffffffffffffffffffffffffffffffff1614610101576040517f08c379a00000000000000000000000000000000000000000000000000000000081526004016100f8906103e9565b60405180910390fd5b80600160008473ffffffffffffffffffffffffffffffffffffffff1673ffffffffffffffffffffffffffffffffffffffff16815260200190815260200160002060008282546101509190610443565b925050819055505050565b600160003373ffffffffffffffffffffffffffffffffffffffff1673ffffffffffffffffffffffffffffffffffffffff168152602001908152602001600020548111156102205780600160003373ffffffffffffffffffffffffffffffffffffffff1673ffffffffffffffffffffffffffffffffffffffff168152602001908152602001600020546040517fcf479181000000000000000000000000000000000000000000000000000000008152600401610217929190610409565b60405180910390fd5b80600160003373ffffffffffffffffffffffffffffffffffffffff1673ffffffffffffffffffffffffffffffffffffffff168152602001908152602001600020600082825461026f9190610499565b9250508190555080600160008473ffffffffffffffffffffffffffffffffffffffff1673ffffffffffffffffffffffffffffffffffffffff16815260200190815260200160002060008282546102c59190610443565b925050819055507f3990db2d31862302a685e8086b5755072a6e2b5b780af1ee81ece35ee3cd33453383836040516102ff939291906103b2565b60405180910390a15050565b60008135905061031a81610587565b92915050565b60008135905061032f8161059e565b92915050565b6000806040838503121561034857600080fd5b60006103568582860161030b565b925050602061036785828601610320565b9150509250929050565b61037a816104cd565b82525050565b600061038d603883610432565b915061039882610538565b604082019050919050565b6103ac816104ff565b82525050565b60006060820190506103c76000830186610371565b6103d46020830185610371565b6103e160408301846103a3565b949350505050565b6000602082019050818103600083015261040281610380565b9050919050565b600060408201905061041e60008301856103a3565b61042b60208301846103a3565b9392505050565b600082825260208201905092915050565b600061044e826104ff565b9150610459836104ff565b9250827fffffffffffffffffffffffffffffffffffffffffffffffffffffffffffffffff0382111561048e5761048d610509565b5b828201905092915050565b60006104a4826104ff565b91506104af836104ff565b9250828210156104c2576104c1610509565b5b828203905092915050565b60006104d8826104df565b9050919050565b600073ffffffffffffffffffffffffffffffffffffffff82169050919050565b6000819050919050565b7f4e487b7100000000000000000000000000000000000000000000000000000000600052601160045260246000fd5b7f6f6e6c79207468652063726561746f72206f662074686520636f6e747261637460008201527f20636f756c6420637265617465206e657720746f6b656e730000000000000000602082015250565b610590816104cd565b811461059b57600080fd5b50565b6105a7816104ff565b81146105b257600080fd5b5056fea264697066735822122093986de62abeaa2b095644bb1b4ea98717b8814147fcf6f544564366ca66ea2e64736f6c63430008040033",
					"opcodes": "PUSH1 0x80 PUSH1 0x40 MSTORE CALLVALUE DUP1 ISZERO PUSH2 0x10 JUMPI PUSH1 0x0 DUP1 REVERT JUMPDEST POP CALLER PUSH1 0x0 DUP1 PUSH2 0x100 EXP DUP2 SLOAD DUP2 PUSH20 0xFFFFFFFFFFFFFFFFFFFFFFFFFFFFFFFFFFFFFFFF MUL NOT AND SWAP1 DUP4 PUSH20 0xFFFFFFFFFFFFFFFFFFFFFFFFFFFFFFFFFFFFFFFF AND MUL OR SWAP1 SSTORE POP PUSH2 0x5EB DUP1 PUSH2 0x60 PUSH1 0x0 CODECOPY PUSH1 0x0 RETURN INVALID PUSH1 0x80 PUSH1 0x40 MSTORE CALLVALUE DUP1 ISZERO PUSH2 0x10 JUMPI PUSH1 0x0 DUP1 REVERT JUMPDEST POP PUSH1 0x4 CALLDATASIZE LT PUSH2 0x36 JUMPI PUSH1 0x0 CALLDATALOAD PUSH1 0xE0 SHR DUP1 PUSH4 0x40C10F19 EQ PUSH2 0x3B JUMPI DUP1 PUSH4 0xA9059CBB EQ PUSH2 0x57 JUMPI JUMPDEST PUSH1 0x0 DUP1 REVERT JUMPDEST PUSH2 0x55 PUSH1 0x4 DUP1 CALLDATASIZE SUB DUP2 ADD SWAP1 PUSH2 0x50 SWAP2 SWAP1 PUSH2 0x335 JUMP JUMPDEST PUSH2 0x73 JUMP JUMPDEST STOP JUMPDEST PUSH2 0x71 PUSH1 0x4 DUP1 CALLDATASIZE SUB DUP2 ADD SWAP1 PUSH2 0x6C SWAP2 SWAP1 PUSH2 0x335 JUMP JUMPDEST PUSH2 0x15B JUMP JUMPDEST STOP JUMPDEST PUSH1 0x0 DUP1 SLOAD SWAP1 PUSH2 0x100 EXP SWAP1 DIV PUSH20 0xFFFFFFFFFFFFFFFFFFFFFFFFFFFFFFFFFFFFFFFF AND PUSH20 0xFFFFFFFFFFFFFFFFFFFFFFFFFFFFFFFFFFFFFFFF AND CALLER PUSH20 0xFFFFFFFFFFFFFFFFFFFFFFFFFFFFFFFFFFFFFFFF AND EQ PUSH2 0x101 JUMPI PUSH1 0x40 MLOAD PUSH32 0x8C379A000000000000000000000000000000000000000000000000000000000 DUP2 MSTORE PUSH1 0x4 ADD PUSH2 0xF8 SWAP1 PUSH2 0x3E9 JUMP JUMPDEST PUSH1 0x40 MLOAD DUP1 SWAP2 SUB SWAP1 REVERT JUMPDEST DUP1 PUSH1 0x1 PUSH1 0x0 DUP5 PUSH20 0xFFFFFFFFFFFFFFFFFFFFFFFFFFFFFFFFFFFFFFFF AND PUSH20 0xFFFFFFFFFFFFFFFFFFFFFFFFFFFFFFFFFFFFFFFF AND DUP2 MSTORE PUSH1 0x20 ADD SWAP1 DUP2 MSTORE PUSH1 0x20 ADD PUSH1 0x0 KECCAK256 PUSH1 0x0 DUP3 DUP3 SLOAD PUSH2 0x150 SWAP2 SWAP1 PUSH2 0x443 JUMP JUMPDEST SWAP3 POP POP DUP2 SWAP1 SSTORE POP POP POP JUMP JUMPDEST PUSH1 0x1 PUSH1 0x0 CALLER PUSH20 0xFFFFFFFFFFFFFFFFFFFFFFFFFFFFFFFFFFFFFFFF AND PUSH20 0xFFFFFFFFFFFFFFFFFFFFFFFFFFFFFFFFFFFFFFFF AND DUP2 MSTORE PUSH1 0x20 ADD SWAP1 DUP2 MSTORE PUSH1 0x20 ADD PUSH1 0x0 KECCAK256 SLOAD DUP2 GT ISZERO PUSH2 0x220 JUMPI DUP1 PUSH1 0x1 PUSH1 0x0 CALLER PUSH20 0xFFFFFFFFFFFFFFFFFFFFFFFFFFFFFFFFFFFFFFFF AND PUSH20 0xFFFFFFFFFFFFFFFFFFFFFFFFFFFFFFFFFFFFFFFF AND DUP2 MSTORE PUSH1 0x20 ADD SWAP1 DUP2 MSTORE PUSH1 0x20 ADD PUSH1 0x0 KECCAK256 SLOAD PUSH1 0x40 MLOAD PUSH32 0xCF47918100000000000000000000000000000000000000000000000000000000 DUP2 MSTORE PUSH1 0x4 ADD PUSH2 0x217 SWAP3 SWAP2 SWAP1 PUSH2 0x409 JUMP JUMPDEST PUSH1 0x40 MLOAD DUP1 SWAP2 SUB SWAP1 REVERT JUMPDEST DUP1 PUSH1 0x1 PUSH1 0x0 CALLER PUSH20 0xFFFFFFFFFFFFFFFFFFFFFFFFFFFFFFFFFFFFFFFF AND PUSH20 0xFFFFFFFFFFFFFFFFFFFFFFFFFFFFFFFFFFFFFFFF AND DUP2 MSTORE PUSH1 0x20 ADD SWAP1 DUP2 MSTORE PUSH1 0x20 ADD PUSH1 0x0 KECCAK256 PUSH1 0x0 DUP3 DUP3 SLOAD PUSH2 0x26F SWAP2 SWAP1 PUSH2 0x499 JUMP JUMPDEST SWAP3 POP POP DUP2 SWAP1 SSTORE POP DUP1 PUSH1 0x1 PUSH1 0x0 DUP5 PUSH20 0xFFFFFFFFFFFFFFFFFFFFFFFFFFFFFFFFFFFFFFFF AND PUSH20 0xFFFFFFFFFFFFFFFFFFFFFFFFFFFFFFFFFFFFFFFF AND DUP2 MSTORE PUSH1 0x20 ADD SWAP1 DUP2 MSTORE PUSH1 0x20 ADD PUSH1 0x0 KECCAK256 PUSH1 0x0 DUP3 DUP3 SLOAD PUSH2 0x2C5 SWAP2 SWAP1 PUSH2 0x443 JUMP JUMPDEST SWAP3 POP POP DUP2 SWAP1 SSTORE POP PUSH32 0x3990DB2D31862302A685E8086B5755072A6E2B5B780AF1EE81ECE35EE3CD3345 CALLER DUP4 DUP4 PUSH1 0x40 MLOAD PUSH2 0x2FF SWAP4 SWAP3 SWAP2 SWAP1 PUSH2 0x3B2 JUMP JUMPDEST PUSH1 0x40 MLOAD DUP1 SWAP2 SUB SWAP1 LOG1 POP POP JUMP JUMPDEST PUSH1 0x0 DUP2 CALLDATALOAD SWAP1 POP PUSH2 0x31A DUP2 PUSH2 0x587 JUMP JUMPDEST SWAP3 SWAP2 POP POP JUMP JUMPDEST PUSH1 0x0 DUP2 CALLDATALOAD SWAP1 POP PUSH2 0x32F DUP2 PUSH2 0x59E JUMP JUMPDEST SWAP3 SWAP2 POP POP JUMP JUMPDEST PUSH1 0x0 DUP1 PUSH1 0x40 DUP4 DUP6 SUB SLT ISZERO PUSH2 0x348 JUMPI PUSH1 0x0 DUP1 REVERT JUMPDEST PUSH1 0x0 PUSH2 0x356 DUP6 DUP3 DUP7 ADD PUSH2 0x30B JUMP JUMPDEST SWAP3 POP POP PUSH1 0x20 PUSH2 0x367 DUP6 DUP3 DUP7 ADD PUSH2 0x320 JUMP JUMPDEST SWAP2 POP POP SWAP3 POP SWAP3 SWAP1 POP JUMP JUMPDEST PUSH2 0x37A DUP2 PUSH2 0x4CD JUMP JUMPDEST DUP3 MSTORE POP POP JUMP JUMPDEST PUSH1 0x0 PUSH2 0x38D PUSH1 0x38 DUP4 PUSH2 0x432 JUMP JUMPDEST SWAP2 POP PUSH2 0x398 DUP3 PUSH2 0x538 JUMP JUMPDEST PUSH1 0x40 DUP3 ADD SWAP1 POP SWAP2 SWAP1 POP JUMP JUMPDEST PUSH2 0x3AC DUP2 PUSH2 0x4FF JUMP JUMPDEST DUP3 MSTORE POP POP JUMP JUMPDEST PUSH1 0x0 PUSH1 0x60 DUP3 ADD SWAP1 POP PUSH2 0x3C7 PUSH1 0x0 DUP4 ADD DUP7 PUSH2 0x371 JUMP JUMPDEST PUSH2 0x3D4 PUSH1 0x20 DUP4 ADD DUP6 PUSH2 0x371 JUMP JUMPDEST PUSH2 0x3E1 PUSH1 0x40 DUP4 ADD DUP5 PUSH2 0x3A3 JUMP JUMPDEST SWAP5 SWAP4 POP POP POP POP JUMP JUMPDEST PUSH1 0x0 PUSH1 0x20 DUP3 ADD SWAP1 POP DUP2 DUP2 SUB PUSH1 0x0 DUP4 ADD MSTORE PUSH2 0x402 DUP2 PUSH2 0x380 JUMP JUMPDEST SWAP1 POP SWAP2 SWAP1 POP JUMP JUMPDEST PUSH1 0x0 PUSH1 0x40 DUP3 ADD SWAP1 POP PUSH2 0x41E PUSH1 0x0 DUP4 ADD DUP6 PUSH2 0x3A3 JUMP JUMPDEST PUSH2 0x42B PUSH1 0x20 DUP4 ADD DUP5 PUSH2 0x3A3 JUMP JUMPDEST SWAP4 SWAP3 POP POP POP JUMP JUMPDEST PUSH1 0x0 DUP3 DUP3 MSTORE PUSH1 0x20 DUP3 ADD SWAP1 POP SWAP3 SWAP2 POP POP JUMP JUMPDEST PUSH1 0x0 PUSH2 0x44E DUP3 PUSH2 0x4FF JUMP JUMPDEST SWAP2 POP PUSH2 0x459 DUP4 PUSH2 0x4FF JUMP JUMPDEST SWAP3 POP DUP3 PUSH32 0xFFFFFFFFFFFFFFFFFFFFFFFFFFFFFFFFFFFFFFFFFFFFFFFFFFFFFFFFFFFFFFFF SUB DUP3 GT ISZERO PUSH2 0x48E JUMPI PUSH2 0x48D PUSH2 0x509 JUMP JUMPDEST JUMPDEST DUP3 DUP3 ADD SWAP1 POP SWAP3 SWAP2 POP POP JUMP JUMPDEST PUSH1 0x0 PUSH2 0x4A4 DUP3 PUSH2 0x4FF JUMP JUMPDEST SWAP2 POP PUSH2 0x4AF DUP4 PUSH2 0x4FF JUMP JUMPDEST SWAP3 POP DUP3 DUP3 LT ISZERO PUSH2 0x4C2 JUMPI PUSH2 0x4C1 PUSH2 0x509 JUMP JUMPDEST JUMPDEST DUP3 DUP3 SUB SWAP1 POP SWAP3 SWAP2 POP POP JUMP JUMPDEST PUSH1 0x0 PUSH2 0x4D8 DUP3 PUSH2 0x4DF JUMP JUMPDEST SWAP1 POP SWAP2 SWAP1 POP JUMP JUMPDEST PUSH1 0x0 PUSH20 0xFFFFFFFFFFFFFFFFFFFFFFFFFFFFFFFFFFFFFFFF DUP3 AND SWAP1 POP SWAP2 SWAP1 POP JUMP JUMPDEST PUSH1 0x0 DUP2 SWAP1 POP SWAP2 SWAP1 POP JUMP JUMPDEST PUSH32 0x4E487B7100000000000000000000000000000000000000000000000000000000 PUSH1 0x0 MSTORE PUSH1 0x11 PUSH1 0x4 MSTORE PUSH1 0x24 PUSH1 0x0 REVERT JUMPDEST PUSH32 0x6F6E6C79207468652063726561746F72206F662074686520636F6E7472616374 PUSH1 0x0 DUP3 ADD MSTORE PUSH32 0x20636F756C6420637265617465206E657720746F6B656E730000000000000000 PUSH1 0x20 DUP3 ADD MSTORE POP JUMP JUMPDEST PUSH2 0x590 DUP2 PUSH2 0x4CD JUMP JUMPDEST DUP2 EQ PUSH2 0x59B JUMPI PUSH1 0x0 DUP1 REVERT JUMPDEST POP JUMP JUMPDEST PUSH2 0x5A7 DUP2 PUSH2 0x4FF JUMP JUMPDEST DUP2 EQ PUSH2 0x5B2 JUMPI PUSH1 0x0 DUP1 REVERT JUMPDEST POP JUMP INVALID LOG2 PUSH5 0x6970667358 0x22 SLT KECCAK256 SWAP4 SWAP9 PUSH14 0xE62ABEAA2B095644BB1B4EA98717 0xB8 DUP2 COINBASE SELFBALANCE 0xFC 0xF6 CREATE2 DIFFICULTY JUMP NUMBER PUSH7 0xCA66EA2E64736F PUSH13 0x63430008040033000000000000 "
				},
				"gasEstimates": {
					"creation": {
						"codeDepositCost": "303000",
						"executionCost": "21209",
						"totalCost": "324209"
					},
					"external": {
						"mint(address,uint256)": "infinite",
						"transfer(address,uint256)": "infinite"
					}
				},
				"methodIdentifiers": {
					"mint(address,uint256)": "40c10f19",
					"transfer(address,uint256)": "a9059cbb"
				}
			},
			"storageLayout": {
				"storage": [
					{
						"astId": 3,
						"contract": "solidityTutorial/test.sol:CoinTest",
						"label": "minter",
						"offset": 0,
						"slot": "0",
						"type": "t_address"
					},
					{
						"astId": 7,
						"contract": "solidityTutorial/test.sol:CoinTest",
						"label": "balances",
						"offset": 0,
						"slot": "1",
						"type": "t_mapping(t_address,t_uint256)"
					}
				],
				"types": {
					"t_address": {
						"encoding": "inplace",
						"label": "address",
						"numberOfBytes": "20"
					},
					"t_mapping(t_address,t_uint256)": {
						"encoding": "mapping",
						"key": "t_address",
						"label": "mapping(address => uint256)",
						"numberOfBytes": "32",
						"value": "t_uint256"
					},
					"t_uint256": {
						"encoding": "inplace",
						"label": "uint256",
						"numberOfBytes": "32"
					}
				}
			},
			"userdoc": {
				"kind": "user",
				"methods": {},
				"version": 1
			}
		}
	}
}