{
	"solidityTutorial/test.sol": {
		"CoinTest": {
			"abi": [
				{
					"inputs": [],
					"stateMutability": "nonpayable",
					"type": "constructor"
				},
				{
					"inputs": [
						{
							"internalType": "uint256",
							"name": "requested",
							"type": "uint256"
						},
						{
							"internalType": "uint256",
							"name": "available",
							"type": "uint256"
						}
					],
					"name": "InsufficientBalance",
					"type": "error"
				},
				{
					"anonymous": false,
					"inputs": [
						{
							"indexed": false,
							"internalType": "address",
							"name": "from",
							"type": "address"
						},
						{
							"indexed": false,
							"internalType": "address",
							"name": "to",
							"type": "address"
						},
						{
							"indexed": false,
							"internalType": "uint256",
							"name": "amount",
							"type": "uint256"
						}
					],
					"name": "Sent",
					"type": "event"
				},
				{
					"inputs": [
						{
							"internalType": "address",
							"name": "",
							"type": "address"
						}
					],
					"name": "balances",
					"outputs": [
						{
							"internalType": "uint256",
							"name": "",
							"type": "uint256"
						}
					],
					"stateMutability": "view",
					"type": "function"
				},
				{
					"inputs": [
						{
							"internalType": "address",
							"name": "receiver",
							"type": "address"
						},
						{
							"internalType": "uint256",
							"name": "amount",
							"type": "uint256"
						}
					],
					"name": "mint",
					"outputs": [],
					"stateMutability": "nonpayable",
					"type": "function"
				},
				{
					"inputs": [],
					"name": "minter",
					"outputs": [
						{
							"internalType": "address",
							"name": "",
							"type": "address"
						}
					],
					"stateMutability": "view",
					"type": "function"
				},
				{
					"inputs": [
						{
							"internalType": "address",
							"name": "receiver",
							"type": "address"
						},
						{
							"internalType": "uint256",
							"name": "amount",
							"type": "uint256"
						}
					],
					"name": "transfer",
					"outputs": [],
					"stateMutability": "nonpayable",
					"type": "function"
				}
			],
			"devdoc": {
				"kind": "dev",
				"methods": {},
				"version": 1
			},
			"evm": {
				"assembly": "    /* \"solidityTutorial/test.sol\":62:916  contract CoinTest {... */\n  mstore(0x40, 0x80)\n    /* \"solidityTutorial/test.sol\":220:270  constructor() {... */\n  callvalue\n  dup1\n  iszero\n  tag_1\n  jumpi\n  0x00\n  dup1\n  revert\ntag_1:\n  pop\n    /* \"solidityTutorial/test.sol\":253:263  msg.sender */\n  caller\n    /* \"solidityTutorial/test.sol\":244:250  minter */\n  0x00\n  dup1\n    /* \"solidityTutorial/test.sol\":244:263  minter = msg.sender */\n  0x0100\n  exp\n  dup2\n  sload\n  dup2\n  0xffffffffffffffffffffffffffffffffffffffff\n  mul\n  not\n  and\n  swap1\n  dup4\n  0xffffffffffffffffffffffffffffffffffffffff\n  and\n  mul\n  or\n  swap1\n  sstore\n  pop\n    /* \"solidityTutorial/test.sol\":62:916  contract CoinTest {... */\n  dataSize(sub_0)\n  dup1\n  dataOffset(sub_0)\n  0x00\n  codecopy\n  0x00\n  return\nstop\n\nsub_0: assembly {\n        /* \"solidityTutorial/test.sol\":62:916  contract CoinTest {... */\n      mstore(0x40, 0x80)\n      callvalue\n      dup1\n      iszero\n      tag_1\n      jumpi\n      0x00\n      dup1\n      revert\n    tag_1:\n      pop\n      jumpi(tag_2, lt(calldatasize, 0x04))\n      shr(0xe0, calldataload(0x00))\n      dup1\n      0x07546172\n      eq\n      tag_3\n      jumpi\n      dup1\n      0x27e235e3\n      eq\n      tag_4\n      jumpi\n      dup1\n      0x40c10f19\n      eq\n      tag_5\n      jumpi\n      dup1\n      0xa9059cbb\n      eq\n      tag_6\n      jumpi\n    tag_2:\n      0x00\n      dup1\n      revert\n        /* \"solidityTutorial/test.sol\":86:107  address public minter */\n    tag_3:\n      tag_7\n      tag_8\n      jump\t// in\n    tag_7:\n      mload(0x40)\n      tag_9\n      swap2\n      swap1\n      tag_10\n      jump\t// in\n    tag_9:\n      mload(0x40)\n      dup1\n      swap2\n      sub\n      swap1\n      return\n        /* \"solidityTutorial/test.sol\":113:157  mapping (address => uint256) public balances */\n    tag_4:\n      tag_11\n      0x04\n      dup1\n      calldatasize\n      sub\n      dup2\n      add\n      swap1\n      tag_12\n      swap2\n      swap1\n      tag_13\n      jump\t// in\n    tag_12:\n      tag_14\n      jump\t// in\n    tag_11:\n      mload(0x40)\n      tag_15\n      swap2\n      swap1\n      tag_16\n      jump\t// in\n    tag_15:\n      mload(0x40)\n      dup1\n      swap2\n      sub\n      swap1\n      return\n        /* \"solidityTutorial/test.sol\":276:472  function mint(address receiver, uint amount) public {... */\n    tag_5:\n      tag_17\n      0x04\n      dup1\n      calldatasize\n      sub\n      dup2\n      add\n      swap1\n      tag_18\n      swap2\n      swap1\n      tag_19\n      jump\t// in\n    tag_18:\n      tag_20\n      jump\t// in\n    tag_17:\n      stop\n        /* \"solidityTutorial/test.sol\":542:914  function transfer(address receiver, uint amount) public {... */\n    tag_6:\n      tag_21\n      0x04\n      dup1\n      calldatasize\n      sub\n      dup2\n      add\n      swap1\n      tag_22\n      swap2\n      swap1\n      tag_19\n      jump\t// in\n    tag_22:\n      tag_23\n      jump\t// in\n    tag_21:\n      stop\n        /* \"solidityTutorial/test.sol\":86:107  address public minter */\n    tag_8:\n      0x00\n      dup1\n      sload\n      swap1\n      0x0100\n      exp\n      swap1\n      div\n      0xffffffffffffffffffffffffffffffffffffffff\n      and\n      dup2\n      jump\t// out\n        /* \"solidityTutorial/test.sol\":113:157  mapping (address => uint256) public balances */\n    tag_14:\n      mstore(0x20, 0x01)\n      dup1\n      0x00\n      mstore\n      keccak256(0x00, 0x40)\n      0x00\n      swap2\n      pop\n      swap1\n      pop\n      sload\n      dup2\n      jump\t// out\n        /* \"solidityTutorial/test.sol\":276:472  function mint(address receiver, uint amount) public {... */\n    tag_20:\n        /* \"solidityTutorial/test.sol\":360:366  minter */\n      0x00\n      dup1\n      sload\n      swap1\n      0x0100\n      exp\n      swap1\n      div\n      0xffffffffffffffffffffffffffffffffffffffff\n      and\n        /* \"solidityTutorial/test.sol\":346:366  msg.sender == minter */\n      0xffffffffffffffffffffffffffffffffffffffff\n      and\n        /* \"solidityTutorial/test.sol\":346:356  msg.sender */\n      caller\n        /* \"solidityTutorial/test.sol\":346:366  msg.sender == minter */\n      0xffffffffffffffffffffffffffffffffffffffff\n      and\n      eq\n        /* \"solidityTutorial/test.sol\":338:427  require(msg.sender == minter, \"only the creator of the contract could create new tokens\") */\n      tag_25\n      jumpi\n      mload(0x40)\n      0x08c379a000000000000000000000000000000000000000000000000000000000\n      dup2\n      mstore\n      0x04\n      add\n      tag_26\n      swap1\n      tag_27\n      jump\t// in\n    tag_26:\n      mload(0x40)\n      dup1\n      swap2\n      sub\n      swap1\n      revert\n    tag_25:\n        /* \"solidityTutorial/test.sol\":459:465  amount */\n      dup1\n        /* \"solidityTutorial/test.sol\":437:445  balances */\n      0x01\n        /* \"solidityTutorial/test.sol\":437:455  balances[receiver] */\n      0x00\n        /* \"solidityTutorial/test.sol\":446:454  receiver */\n      dup5\n        /* \"solidityTutorial/test.sol\":437:455  balances[receiver] */\n      0xffffffffffffffffffffffffffffffffffffffff\n      and\n      0xffffffffffffffffffffffffffffffffffffffff\n      and\n      dup2\n      mstore\n      0x20\n      add\n      swap1\n      dup2\n      mstore\n      0x20\n      add\n      0x00\n      keccak256\n      0x00\n        /* \"solidityTutorial/test.sol\":437:465  balances[receiver] += amount */\n      dup3\n      dup3\n      sload\n      tag_28\n      swap2\n      swap1\n      tag_29\n      jump\t// in\n    tag_28:\n      swap3\n      pop\n      pop\n      dup2\n      swap1\n      sstore\n      pop\n        /* \"solidityTutorial/test.sol\":276:472  function mint(address receiver, uint amount) public {... */\n      pop\n      pop\n      jump\t// out\n        /* \"solidityTutorial/test.sol\":542:914  function transfer(address receiver, uint amount) public {... */\n    tag_23:\n        /* \"solidityTutorial/test.sol\":621:629  balances */\n      0x01\n        /* \"solidityTutorial/test.sol\":621:641  balances[msg.sender] */\n      0x00\n        /* \"solidityTutorial/test.sol\":630:640  msg.sender */\n      caller\n        /* \"solidityTutorial/test.sol\":621:641  balances[msg.sender] */\n      0xffffffffffffffffffffffffffffffffffffffff\n      and\n      0xffffffffffffffffffffffffffffffffffffffff\n      and\n      dup2\n      mstore\n      0x20\n      add\n      swap1\n      dup2\n      mstore\n      0x20\n      add\n      0x00\n      keccak256\n      sload\n        /* \"solidityTutorial/test.sol\":612:618  amount */\n      dup2\n        /* \"solidityTutorial/test.sol\":612:641  amount > balances[msg.sender] */\n      gt\n        /* \"solidityTutorial/test.sol\":608:781  if (amount > balances[msg.sender]){... */\n      iszero\n      tag_31\n      jumpi\n        /* \"solidityTutorial/test.sol\":712:718  amount */\n      dup1\n        /* \"solidityTutorial/test.sol\":748:756  balances */\n      0x01\n        /* \"solidityTutorial/test.sol\":748:768  balances[msg.sender] */\n      0x00\n        /* \"solidityTutorial/test.sol\":757:767  msg.sender */\n      caller\n        /* \"solidityTutorial/test.sol\":748:768  balances[msg.sender] */\n      0xffffffffffffffffffffffffffffffffffffffff\n      and\n      0xffffffffffffffffffffffffffffffffffffffff\n      and\n      dup2\n      mstore\n      0x20\n      add\n      swap1\n      dup2\n      mstore\n      0x20\n      add\n      0x00\n      keccak256\n      sload\n        /* \"solidityTutorial/test.sol\":663:770  InsufficientBalance({... */\n      mload(0x40)\n      0xcf47918100000000000000000000000000000000000000000000000000000000\n      dup2\n      mstore\n      0x04\n      add\n      tag_32\n      swap3\n      swap2\n      swap1\n      tag_33\n      jump\t// in\n    tag_32:\n      mload(0x40)\n      dup1\n      swap2\n      sub\n      swap1\n      revert\n        /* \"solidityTutorial/test.sol\":608:781  if (amount > balances[msg.sender]){... */\n    tag_31:\n        /* \"solidityTutorial/test.sol\":814:820  amount */\n      dup1\n        /* \"solidityTutorial/test.sol\":790:798  balances */\n      0x01\n        /* \"solidityTutorial/test.sol\":790:810  balances[msg.sender] */\n      0x00\n        /* \"solidityTutorial/test.sol\":799:809  msg.sender */\n      caller\n        /* \"solidityTutorial/test.sol\":790:810  balances[msg.sender] */\n      0xffffffffffffffffffffffffffffffffffffffff\n      and\n      0xffffffffffffffffffffffffffffffffffffffff\n      and\n      dup2\n      mstore\n      0x20\n      add\n      swap1\n      dup2\n      mstore\n      0x20\n      add\n      0x00\n      keccak256\n      0x00\n        /* \"solidityTutorial/test.sol\":790:820  balances[msg.sender] -= amount */\n      dup3\n      dup3\n      sload\n      tag_34\n      swap2\n      swap1\n      tag_35\n      jump\t// in\n    tag_34:\n      swap3\n      pop\n      pop\n      dup2\n      swap1\n      sstore\n      pop\n        /* \"solidityTutorial/test.sol\":852:858  amount */\n      dup1\n        /* \"solidityTutorial/test.sol\":830:838  balances */\n      0x01\n        /* \"solidityTutorial/test.sol\":830:848  balances[receiver] */\n      0x00\n        /* \"solidityTutorial/test.sol\":839:847  receiver */\n      dup5\n        /* \"solidityTutorial/test.sol\":830:848  balances[receiver] */\n      0xffffffffffffffffffffffffffffffffffffffff\n      and\n      0xffffffffffffffffffffffffffffffffffffffff\n      and\n      dup2\n      mstore\n      0x20\n      add\n      swap1\n      dup2\n      mstore\n      0x20\n      add\n      0x00\n      keccak256\n      0x00\n        /* \"solidityTutorial/test.sol\":830:858  balances[receiver] += amount */\n      dup3\n      dup3\n      sload\n      tag_36\n      swap2\n      swap1\n      tag_29\n      jump\t// in\n    tag_36:\n      swap3\n      pop\n      pop\n      dup2\n      swap1\n      sstore\n      pop\n        /* \"solidityTutorial/test.sol\":873:907  Sent(msg.sender, receiver, amount) */\n      0x3990db2d31862302a685e8086b5755072a6e2b5b780af1ee81ece35ee3cd3345\n        /* \"solidityTutorial/test.sol\":878:888  msg.sender */\n      caller\n        /* \"solidityTutorial/test.sol\":890:898  receiver */\n      dup4\n        /* \"solidityTutorial/test.sol\":900:906  amount */\n      dup4\n        /* \"solidityTutorial/test.sol\":873:907  Sent(msg.sender, receiver, amount) */\n      mload(0x40)\n      tag_37\n      swap4\n      swap3\n      swap2\n      swap1\n      tag_38\n      jump\t// in\n    tag_37:\n      mload(0x40)\n      dup1\n      swap2\n      sub\n      swap1\n      log1\n        /* \"solidityTutorial/test.sol\":542:914  function transfer(address receiver, uint amount) public {... */\n      pop\n      pop\n      jump\t// out\n        /* \"#utility.yul\":7:146   */\n    tag_40:\n        /* \"#utility.yul\":53:58   */\n      0x00\n        /* \"#utility.yul\":91:97   */\n      dup2\n        /* \"#utility.yul\":78:98   */\n      calldataload\n        /* \"#utility.yul\":69:98   */\n      swap1\n      pop\n        /* \"#utility.yul\":107:140   */\n      tag_42\n        /* \"#utility.yul\":134:139   */\n      dup2\n        /* \"#utility.yul\":107:140   */\n      tag_43\n      jump\t// in\n    tag_42:\n        /* \"#utility.yul\":59:146   */\n      swap3\n      swap2\n      pop\n      pop\n      jump\t// out\n        /* \"#utility.yul\":152:291   */\n    tag_44:\n        /* \"#utility.yul\":198:203   */\n      0x00\n        /* \"#utility.yul\":236:242   */\n      dup2\n        /* \"#utility.yul\":223:243   */\n      calldataload\n        /* \"#utility.yul\":214:243   */\n      swap1\n      pop\n        /* \"#utility.yul\":252:285   */\n      tag_46\n        /* \"#utility.yul\":279:284   */\n      dup2\n        /* \"#utility.yul\":252:285   */\n      tag_47\n      jump\t// in\n    tag_46:\n        /* \"#utility.yul\":204:291   */\n      swap3\n      swap2\n      pop\n      pop\n      jump\t// out\n        /* \"#utility.yul\":297:559   */\n    tag_13:\n        /* \"#utility.yul\":356:362   */\n      0x00\n        /* \"#utility.yul\":405:407   */\n      0x20\n        /* \"#utility.yul\":393:402   */\n      dup3\n        /* \"#utility.yul\":384:391   */\n      dup5\n        /* \"#utility.yul\":380:403   */\n      sub\n        /* \"#utility.yul\":376:408   */\n      slt\n        /* \"#utility.yul\":373:375   */\n      iszero\n      tag_49\n      jumpi\n        /* \"#utility.yul\":421:422   */\n      0x00\n        /* \"#utility.yul\":418:419   */\n      dup1\n        /* \"#utility.yul\":411:423   */\n      revert\n        /* \"#utility.yul\":373:375   */\n    tag_49:\n        /* \"#utility.yul\":464:465   */\n      0x00\n        /* \"#utility.yul\":489:542   */\n      tag_50\n        /* \"#utility.yul\":534:541   */\n      dup5\n        /* \"#utility.yul\":525:531   */\n      dup3\n        /* \"#utility.yul\":514:523   */\n      dup6\n        /* \"#utility.yul\":510:532   */\n      add\n        /* \"#utility.yul\":489:542   */\n      tag_40\n      jump\t// in\n    tag_50:\n        /* \"#utility.yul\":479:542   */\n      swap2\n      pop\n        /* \"#utility.yul\":435:552   */\n      pop\n        /* \"#utility.yul\":363:559   */\n      swap3\n      swap2\n      pop\n      pop\n      jump\t// out\n        /* \"#utility.yul\":565:972   */\n    tag_19:\n        /* \"#utility.yul\":633:639   */\n      0x00\n        /* \"#utility.yul\":641:647   */\n      dup1\n        /* \"#utility.yul\":690:692   */\n      0x40\n        /* \"#utility.yul\":678:687   */\n      dup4\n        /* \"#utility.yul\":669:676   */\n      dup6\n        /* \"#utility.yul\":665:688   */\n      sub\n        /* \"#utility.yul\":661:693   */\n      slt\n        /* \"#utility.yul\":658:660   */\n      iszero\n      tag_52\n      jumpi\n        /* \"#utility.yul\":706:707   */\n      0x00\n        /* \"#utility.yul\":703:704   */\n      dup1\n        /* \"#utility.yul\":696:708   */\n      revert\n        /* \"#utility.yul\":658:660   */\n    tag_52:\n        /* \"#utility.yul\":749:750   */\n      0x00\n        /* \"#utility.yul\":774:827   */\n      tag_53\n        /* \"#utility.yul\":819:826   */\n      dup6\n        /* \"#utility.yul\":810:816   */\n      dup3\n        /* \"#utility.yul\":799:808   */\n      dup7\n        /* \"#utility.yul\":795:817   */\n      add\n        /* \"#utility.yul\":774:827   */\n      tag_40\n      jump\t// in\n    tag_53:\n        /* \"#utility.yul\":764:827   */\n      swap3\n      pop\n        /* \"#utility.yul\":720:837   */\n      pop\n        /* \"#utility.yul\":876:878   */\n      0x20\n        /* \"#utility.yul\":902:955   */\n      tag_54\n        /* \"#utility.yul\":947:954   */\n      dup6\n        /* \"#utility.yul\":938:944   */\n      dup3\n        /* \"#utility.yul\":927:936   */\n      dup7\n        /* \"#utility.yul\":923:945   */\n      add\n        /* \"#utility.yul\":902:955   */\n      tag_44\n      jump\t// in\n    tag_54:\n        /* \"#utility.yul\":892:955   */\n      swap2\n      pop\n        /* \"#utility.yul\":847:965   */\n      pop\n        /* \"#utility.yul\":648:972   */\n      swap3\n      pop\n      swap3\n      swap1\n      pop\n      jump\t// out\n        /* \"#utility.yul\":978:1096   */\n    tag_55:\n        /* \"#utility.yul\":1065:1089   */\n      tag_57\n        /* \"#utility.yul\":1083:1088   */\n      dup2\n        /* \"#utility.yul\":1065:1089   */\n      tag_58\n      jump\t// in\n    tag_57:\n        /* \"#utility.yul\":1060:1063   */\n      dup3\n        /* \"#utility.yul\":1053:1090   */\n      mstore\n        /* \"#utility.yul\":1043:1096   */\n      pop\n      pop\n      jump\t// out\n        /* \"#utility.yul\":1102:1468   */\n    tag_59:\n        /* \"#utility.yul\":1244:1247   */\n      0x00\n        /* \"#utility.yul\":1265:1332   */\n      tag_61\n        /* \"#utility.yul\":1329:1331   */\n      0x38\n        /* \"#utility.yul\":1324:1327   */\n      dup4\n        /* \"#utility.yul\":1265:1332   */\n      tag_62\n      jump\t// in\n    tag_61:\n        /* \"#utility.yul\":1258:1332   */\n      swap2\n      pop\n        /* \"#utility.yul\":1341:1434   */\n      tag_63\n        /* \"#utility.yul\":1430:1433   */\n      dup3\n        /* \"#utility.yul\":1341:1434   */\n      tag_64\n      jump\t// in\n    tag_63:\n        /* \"#utility.yul\":1459:1461   */\n      0x40\n        /* \"#utility.yul\":1454:1457   */\n      dup3\n        /* \"#utility.yul\":1450:1462   */\n      add\n        /* \"#utility.yul\":1443:1462   */\n      swap1\n      pop\n        /* \"#utility.yul\":1248:1468   */\n      swap2\n      swap1\n      pop\n      jump\t// out\n        /* \"#utility.yul\":1474:1592   */\n    tag_65:\n        /* \"#utility.yul\":1561:1585   */\n      tag_67\n        /* \"#utility.yul\":1579:1584   */\n      dup2\n        /* \"#utility.yul\":1561:1585   */\n      tag_68\n      jump\t// in\n    tag_67:\n        /* \"#utility.yul\":1556:1559   */\n      dup3\n        /* \"#utility.yul\":1549:1586   */\n      mstore\n        /* \"#utility.yul\":1539:1592   */\n      pop\n      pop\n      jump\t// out\n        /* \"#utility.yul\":1598:1820   */\n    tag_10:\n        /* \"#utility.yul\":1691:1695   */\n      0x00\n        /* \"#utility.yul\":1729:1731   */\n      0x20\n        /* \"#utility.yul\":1718:1727   */\n      dup3\n        /* \"#utility.yul\":1714:1732   */\n      add\n        /* \"#utility.yul\":1706:1732   */\n      swap1\n      pop\n        /* \"#utility.yul\":1742:1813   */\n      tag_70\n        /* \"#utility.yul\":1810:1811   */\n      0x00\n        /* \"#utility.yul\":1799:1808   */\n      dup4\n        /* \"#utility.yul\":1795:1812   */\n      add\n        /* \"#utility.yul\":1786:1792   */\n      dup5\n        /* \"#utility.yul\":1742:1813   */\n      tag_55\n      jump\t// in\n    tag_70:\n        /* \"#utility.yul\":1696:1820   */\n      swap3\n      swap2\n      pop\n      pop\n      jump\t// out\n        /* \"#utility.yul\":1826:2268   */\n    tag_38:\n        /* \"#utility.yul\":1975:1979   */\n      0x00\n        /* \"#utility.yul\":2013:2015   */\n      0x60\n        /* \"#utility.yul\":2002:2011   */\n      dup3\n        /* \"#utility.yul\":1998:2016   */\n      add\n        /* \"#utility.yul\":1990:2016   */\n      swap1\n      pop\n        /* \"#utility.yul\":2026:2097   */\n      tag_72\n        /* \"#utility.yul\":2094:2095   */\n      0x00\n        /* \"#utility.yul\":2083:2092   */\n      dup4\n        /* \"#utility.yul\":2079:2096   */\n      add\n        /* \"#utility.yul\":2070:2076   */\n      dup7\n        /* \"#utility.yul\":2026:2097   */\n      tag_55\n      jump\t// in\n    tag_72:\n        /* \"#utility.yul\":2107:2179   */\n      tag_73\n        /* \"#utility.yul\":2175:2177   */\n      0x20\n        /* \"#utility.yul\":2164:2173   */\n      dup4\n        /* \"#utility.yul\":2160:2178   */\n      add\n        /* \"#utility.yul\":2151:2157   */\n      dup6\n        /* \"#utility.yul\":2107:2179   */\n      tag_55\n      jump\t// in\n    tag_73:\n        /* \"#utility.yul\":2189:2261   */\n      tag_74\n        /* \"#utility.yul\":2257:2259   */\n      0x40\n        /* \"#utility.yul\":2246:2255   */\n      dup4\n        /* \"#utility.yul\":2242:2260   */\n      add\n        /* \"#utility.yul\":2233:2239   */\n      dup5\n        /* \"#utility.yul\":2189:2261   */\n      tag_65\n      jump\t// in\n    tag_74:\n        /* \"#utility.yul\":1980:2268   */\n      swap5\n      swap4\n      pop\n      pop\n      pop\n      pop\n      jump\t// out\n        /* \"#utility.yul\":2274:2693   */\n    tag_27:\n        /* \"#utility.yul\":2440:2444   */\n      0x00\n        /* \"#utility.yul\":2478:2480   */\n      0x20\n        /* \"#utility.yul\":2467:2476   */\n      dup3\n        /* \"#utility.yul\":2463:2481   */\n      add\n        /* \"#utility.yul\":2455:2481   */\n      swap1\n      pop\n        /* \"#utility.yul\":2527:2536   */\n      dup2\n        /* \"#utility.yul\":2521:2525   */\n      dup2\n        /* \"#utility.yul\":2517:2537   */\n      sub\n        /* \"#utility.yul\":2513:2514   */\n      0x00\n        /* \"#utility.yul\":2502:2511   */\n      dup4\n        /* \"#utility.yul\":2498:2515   */\n      add\n        /* \"#utility.yul\":2491:2538   */\n      mstore\n        /* \"#utility.yul\":2555:2686   */\n      tag_76\n        /* \"#utility.yul\":2681:2685   */\n      dup2\n        /* \"#utility.yul\":2555:2686   */\n      tag_59\n      jump\t// in\n    tag_76:\n        /* \"#utility.yul\":2547:2686   */\n      swap1\n      pop\n        /* \"#utility.yul\":2445:2693   */\n      swap2\n      swap1\n      pop\n      jump\t// out\n        /* \"#utility.yul\":2699:2921   */\n    tag_16:\n        /* \"#utility.yul\":2792:2796   */\n      0x00\n        /* \"#utility.yul\":2830:2832   */\n      0x20\n        /* \"#utility.yul\":2819:2828   */\n      dup3\n        /* \"#utility.yul\":2815:2833   */\n      add\n        /* \"#utility.yul\":2807:2833   */\n      swap1\n      pop\n        /* \"#utility.yul\":2843:2914   */\n      tag_78\n        /* \"#utility.yul\":2911:2912   */\n      0x00\n        /* \"#utility.yul\":2900:2909   */\n      dup4\n        /* \"#utility.yul\":2896:2913   */\n      add\n        /* \"#utility.yul\":2887:2893   */\n      dup5\n        /* \"#utility.yul\":2843:2914   */\n      tag_65\n      jump\t// in\n    tag_78:\n        /* \"#utility.yul\":2797:2921   */\n      swap3\n      swap2\n      pop\n      pop\n      jump\t// out\n        /* \"#utility.yul\":2927:3259   */\n    tag_33:\n        /* \"#utility.yul\":3048:3052   */\n      0x00\n        /* \"#utility.yul\":3086:3088   */\n      0x40\n        /* \"#utility.yul\":3075:3084   */\n      dup3\n        /* \"#utility.yul\":3071:3089   */\n      add\n        /* \"#utility.yul\":3063:3089   */\n      swap1\n      pop\n        /* \"#utility.yul\":3099:3170   */\n      tag_80\n        /* \"#utility.yul\":3167:3168   */\n      0x00\n        /* \"#utility.yul\":3156:3165   */\n      dup4\n        /* \"#utility.yul\":3152:3169   */\n      add\n        /* \"#utility.yul\":3143:3149   */\n      dup6\n        /* \"#utility.yul\":3099:3170   */\n      tag_65\n      jump\t// in\n    tag_80:\n        /* \"#utility.yul\":3180:3252   */\n      tag_81\n        /* \"#utility.yul\":3248:3250   */\n      0x20\n        /* \"#utility.yul\":3237:3246   */\n      dup4\n        /* \"#utility.yul\":3233:3251   */\n      add\n        /* \"#utility.yul\":3224:3230   */\n      dup5\n        /* \"#utility.yul\":3180:3252   */\n      tag_65\n      jump\t// in\n    tag_81:\n        /* \"#utility.yul\":3053:3259   */\n      swap4\n      swap3\n      pop\n      pop\n      pop\n      jump\t// out\n        /* \"#utility.yul\":3265:3434   */\n    tag_62:\n        /* \"#utility.yul\":3349:3360   */\n      0x00\n        /* \"#utility.yul\":3383:3389   */\n      dup3\n        /* \"#utility.yul\":3378:3381   */\n      dup3\n        /* \"#utility.yul\":3371:3390   */\n      mstore\n        /* \"#utility.yul\":3423:3427   */\n      0x20\n        /* \"#utility.yul\":3418:3421   */\n      dup3\n        /* \"#utility.yul\":3414:3428   */\n      add\n        /* \"#utility.yul\":3399:3428   */\n      swap1\n      pop\n        /* \"#utility.yul\":3361:3434   */\n      swap3\n      swap2\n      pop\n      pop\n      jump\t// out\n        /* \"#utility.yul\":3440:3745   */\n    tag_29:\n        /* \"#utility.yul\":3480:3483   */\n      0x00\n        /* \"#utility.yul\":3499:3519   */\n      tag_84\n        /* \"#utility.yul\":3517:3518   */\n      dup3\n        /* \"#utility.yul\":3499:3519   */\n      tag_68\n      jump\t// in\n    tag_84:\n        /* \"#utility.yul\":3494:3519   */\n      swap2\n      pop\n        /* \"#utility.yul\":3533:3553   */\n      tag_85\n        /* \"#utility.yul\":3551:3552   */\n      dup4\n        /* \"#utility.yul\":3533:3553   */\n      tag_68\n      jump\t// in\n    tag_85:\n        /* \"#utility.yul\":3528:3553   */\n      swap3\n      pop\n        /* \"#utility.yul\":3687:3688   */\n      dup3\n        /* \"#utility.yul\":3619:3685   */\n      0xffffffffffffffffffffffffffffffffffffffffffffffffffffffffffffffff\n        /* \"#utility.yul\":3615:3689   */\n      sub\n        /* \"#utility.yul\":3612:3613   */\n      dup3\n        /* \"#utility.yul\":3609:3690   */\n      gt\n        /* \"#utility.yul\":3606:3608   */\n      iszero\n      tag_86\n      jumpi\n        /* \"#utility.yul\":3693:3711   */\n      tag_87\n      tag_88\n      jump\t// in\n    tag_87:\n        /* \"#utility.yul\":3606:3608   */\n    tag_86:\n        /* \"#utility.yul\":3737:3738   */\n      dup3\n        /* \"#utility.yul\":3734:3735   */\n      dup3\n        /* \"#utility.yul\":3730:3739   */\n      add\n        /* \"#utility.yul\":3723:3739   */\n      swap1\n      pop\n        /* \"#utility.yul\":3484:3745   */\n      swap3\n      swap2\n      pop\n      pop\n      jump\t// out\n        /* \"#utility.yul\":3751:3942   */\n    tag_35:\n        /* \"#utility.yul\":3791:3795   */\n      0x00\n        /* \"#utility.yul\":3811:3831   */\n      tag_90\n        /* \"#utility.yul\":3829:3830   */\n      dup3\n        /* \"#utility.yul\":3811:3831   */\n      tag_68\n      jump\t// in\n    tag_90:\n        /* \"#utility.yul\":3806:3831   */\n      swap2\n      pop\n        /* \"#utility.yul\":3845:3865   */\n      tag_91\n        /* \"#utility.yul\":3863:3864   */\n      dup4\n        /* \"#utility.yul\":3845:3865   */\n      tag_68\n      jump\t// in\n    tag_91:\n        /* \"#utility.yul\":3840:3865   */\n      swap3\n      pop\n        /* \"#utility.yul\":3884:3885   */\n      dup3\n        /* \"#utility.yul\":3881:3882   */\n      dup3\n        /* \"#utility.yul\":3878:3886   */\n      lt\n        /* \"#utility.yul\":3875:3877   */\n      iszero\n      tag_92\n      jumpi\n        /* \"#utility.yul\":3889:3907   */\n      tag_93\n      tag_88\n      jump\t// in\n    tag_93:\n        /* \"#utility.yul\":3875:3877   */\n    tag_92:\n        /* \"#utility.yul\":3934:3935   */\n      dup3\n        /* \"#utility.yul\":3931:3932   */\n      dup3\n        /* \"#utility.yul\":3927:3936   */\n      sub\n        /* \"#utility.yul\":3919:3936   */\n      swap1\n      pop\n        /* \"#utility.yul\":3796:3942   */\n      swap3\n      swap2\n      pop\n      pop\n      jump\t// out\n        /* \"#utility.yul\":3948:4044   */\n    tag_58:\n        /* \"#utility.yul\":3985:3992   */\n      0x00\n        /* \"#utility.yul\":4014:4038   */\n      tag_95\n        /* \"#utility.yul\":4032:4037   */\n      dup3\n        /* \"#utility.yul\":4014:4038   */\n      tag_96\n      jump\t// in\n    tag_95:\n        /* \"#utility.yul\":4003:4038   */\n      swap1\n      pop\n        /* \"#utility.yul\":3993:4044   */\n      swap2\n      swap1\n      pop\n      jump\t// out\n        /* \"#utility.yul\":4050:4176   */\n    tag_96:\n        /* \"#utility.yul\":4087:4094   */\n      0x00\n        /* \"#utility.yul\":4127:4169   */\n      0xffffffffffffffffffffffffffffffffffffffff\n        /* \"#utility.yul\":4120:4125   */\n      dup3\n        /* \"#utility.yul\":4116:4170   */\n      and\n        /* \"#utility.yul\":4105:4170   */\n      swap1\n      pop\n        /* \"#utility.yul\":4095:4176   */\n      swap2\n      swap1\n      pop\n      jump\t// out\n        /* \"#utility.yul\":4182:4259   */\n    tag_68:\n        /* \"#utility.yul\":4219:4226   */\n      0x00\n        /* \"#utility.yul\":4248:4253   */\n      dup2\n        /* \"#utility.yul\":4237:4253   */\n      swap1\n      pop\n        /* \"#utility.yul\":4227:4259   */\n      swap2\n      swap1\n      pop\n      jump\t// out\n        /* \"#utility.yul\":4265:4445   */\n    tag_88:\n        /* \"#utility.yul\":4313:4390   */\n      0x4e487b7100000000000000000000000000000000000000000000000000000000\n        /* \"#utility.yul\":4310:4311   */\n      0x00\n        /* \"#utility.yul\":4303:4391   */\n      mstore\n        /* \"#utility.yul\":4410:4414   */\n      0x11\n        /* \"#utility.yul\":4407:4408   */\n      0x04\n        /* \"#utility.yul\":4400:4415   */\n      mstore\n        /* \"#utility.yul\":4434:4438   */\n      0x24\n        /* \"#utility.yul\":4431:4432   */\n      0x00\n        /* \"#utility.yul\":4424:4439   */\n      revert\n        /* \"#utility.yul\":4451:4694   */\n    tag_64:\n        /* \"#utility.yul\":4591:4625   */\n      0x6f6e6c79207468652063726561746f72206f662074686520636f6e7472616374\n        /* \"#utility.yul\":4587:4588   */\n      0x00\n        /* \"#utility.yul\":4579:4585   */\n      dup3\n        /* \"#utility.yul\":4575:4589   */\n      add\n        /* \"#utility.yul\":4568:4626   */\n      mstore\n        /* \"#utility.yul\":4660:4686   */\n      0x20636f756c6420637265617465206e657720746f6b656e730000000000000000\n        /* \"#utility.yul\":4655:4657   */\n      0x20\n        /* \"#utility.yul\":4647:4653   */\n      dup3\n        /* \"#utility.yul\":4643:4658   */\n      add\n        /* \"#utility.yul\":4636:4687   */\n      mstore\n        /* \"#utility.yul\":4557:4694   */\n      pop\n      jump\t// out\n        /* \"#utility.yul\":4700:4822   */\n    tag_43:\n        /* \"#utility.yul\":4773:4797   */\n      tag_102\n        /* \"#utility.yul\":4791:4796   */\n      dup2\n        /* \"#utility.yul\":4773:4797   */\n      tag_58\n      jump\t// in\n    tag_102:\n        /* \"#utility.yul\":4766:4771   */\n      dup2\n        /* \"#utility.yul\":4763:4798   */\n      eq\n        /* \"#utility.yul\":4753:4755   */\n      tag_103\n      jumpi\n        /* \"#utility.yul\":4812:4813   */\n      0x00\n        /* \"#utility.yul\":4809:4810   */\n      dup1\n        /* \"#utility.yul\":4802:4814   */\n      revert\n        /* \"#utility.yul\":4753:4755   */\n    tag_103:\n        /* \"#utility.yul\":4743:4822   */\n      pop\n      jump\t// out\n        /* \"#utility.yul\":4828:4950   */\n    tag_47:\n        /* \"#utility.yul\":4901:4925   */\n      tag_105\n        /* \"#utility.yul\":4919:4924   */\n      dup2\n        /* \"#utility.yul\":4901:4925   */\n      tag_68\n      jump\t// in\n    tag_105:\n        /* \"#utility.yul\":4894:4899   */\n      dup2\n        /* \"#utility.yul\":4891:4926   */\n      eq\n        /* \"#utility.yul\":4881:4883   */\n      tag_106\n      jumpi\n        /* \"#utility.yul\":4940:4941   */\n      0x00\n        /* \"#utility.yul\":4937:4938   */\n      dup1\n        /* \"#utility.yul\":4930:4942   */\n      revert\n        /* \"#utility.yul\":4881:4883   */\n    tag_106:\n        /* \"#utility.yul\":4871:4950   */\n      pop\n      jump\t// out\n\n    auxdata: 0xa26469706673582212205c1fc72b32cc398b3765992dd4ccbb70cc8be6023fe8dc4caf0aef8b5de79bbf64736f6c63430008040033\n}\n",
				"bytecode": {
					"linkReferences": {},
					"object": "608060405234801561001057600080fd5b50336000806101000a81548173ffffffffffffffffffffffffffffffffffffffff021916908373ffffffffffffffffffffffffffffffffffffffff1602179055506106ea806100606000396000f3fe608060405234801561001057600080fd5b506004361061004c5760003560e01c8063075461721461005157806327e235e31461006f57806340c10f191461009f578063a9059cbb146100bb575b600080fd5b6100596100d7565b604051610066919061047b565b60405180910390f35b610089600480360381019061008491906103d5565b6100fb565b60405161009691906104ed565b60405180910390f35b6100b960048036038101906100b491906103fe565b610113565b005b6100d560048036038101906100d091906103fe565b6101fb565b005b60008054906101000a900473ffffffffffffffffffffffffffffffffffffffff1681565b60016020528060005260406000206000915090505481565b60008054906101000a900473ffffffffffffffffffffffffffffffffffffffff1673ffffffffffffffffffffffffffffffffffffffff163373ffffffffffffffffffffffffffffffffffffffff16146101a1576040517f08c379a0000000000000000000000000000000000000000000000000000000008152600401610198906104cd565b60405180910390fd5b80600160008473ffffffffffffffffffffffffffffffffffffffff1673ffffffffffffffffffffffffffffffffffffffff16815260200190815260200160002060008282546101f09190610542565b925050819055505050565b600160003373ffffffffffffffffffffffffffffffffffffffff1673ffffffffffffffffffffffffffffffffffffffff168152602001908152602001600020548111156102c05780600160003373ffffffffffffffffffffffffffffffffffffffff1673ffffffffffffffffffffffffffffffffffffffff168152602001908152602001600020546040517fcf4791810000000000000000000000000000000000000000000000000000000081526004016102b7929190610508565b60405180910390fd5b80600160003373ffffffffffffffffffffffffffffffffffffffff1673ffffffffffffffffffffffffffffffffffffffff168152602001908152602001600020600082825461030f9190610598565b9250508190555080600160008473ffffffffffffffffffffffffffffffffffffffff1673ffffffffffffffffffffffffffffffffffffffff16815260200190815260200160002060008282546103659190610542565b925050819055507f3990db2d31862302a685e8086b5755072a6e2b5b780af1ee81ece35ee3cd334533838360405161039f93929190610496565b60405180910390a15050565b6000813590506103ba81610686565b92915050565b6000813590506103cf8161069d565b92915050565b6000602082840312156103e757600080fd5b60006103f5848285016103ab565b91505092915050565b6000806040838503121561041157600080fd5b600061041f858286016103ab565b9250506020610430858286016103c0565b9150509250929050565b610443816105cc565b82525050565b6000610456603883610531565b915061046182610637565b604082019050919050565b610475816105fe565b82525050565b6000602082019050610490600083018461043a565b92915050565b60006060820190506104ab600083018661043a565b6104b8602083018561043a565b6104c5604083018461046c565b949350505050565b600060208201905081810360008301526104e681610449565b9050919050565b6000602082019050610502600083018461046c565b92915050565b600060408201905061051d600083018561046c565b61052a602083018461046c565b9392505050565b600082825260208201905092915050565b600061054d826105fe565b9150610558836105fe565b9250827fffffffffffffffffffffffffffffffffffffffffffffffffffffffffffffffff0382111561058d5761058c610608565b5b828201905092915050565b60006105a3826105fe565b91506105ae836105fe565b9250828210156105c1576105c0610608565b5b828203905092915050565b60006105d7826105de565b9050919050565b600073ffffffffffffffffffffffffffffffffffffffff82169050919050565b6000819050919050565b7f4e487b7100000000000000000000000000000000000000000000000000000000600052601160045260246000fd5b7f6f6e6c79207468652063726561746f72206f662074686520636f6e747261637460008201527f20636f756c6420637265617465206e657720746f6b656e730000000000000000602082015250565b61068f816105cc565b811461069a57600080fd5b50565b6106a6816105fe565b81146106b157600080fd5b5056fea26469706673582212205c1fc72b32cc398b3765992dd4ccbb70cc8be6023fe8dc4caf0aef8b5de79bbf64736f6c63430008040033",
					"opcodes": "PUSH1 0x80 PUSH1 0x40 MSTORE CALLVALUE DUP1 ISZERO PUSH2 0x10 JUMPI PUSH1 0x0 DUP1 REVERT JUMPDEST POP CALLER PUSH1 0x0 DUP1 PUSH2 0x100 EXP DUP2 SLOAD DUP2 PUSH20 0xFFFFFFFFFFFFFFFFFFFFFFFFFFFFFFFFFFFFFFFF MUL NOT AND SWAP1 DUP4 PUSH20 0xFFFFFFFFFFFFFFFFFFFFFFFFFFFFFFFFFFFFFFFF AND MUL OR SWAP1 SSTORE POP PUSH2 0x6EA DUP1 PUSH2 0x60 PUSH1 0x0 CODECOPY PUSH1 0x0 RETURN INVALID PUSH1 0x80 PUSH1 0x40 MSTORE CALLVALUE DUP1 ISZERO PUSH2 0x10 JUMPI PUSH1 0x0 DUP1 REVERT JUMPDEST POP PUSH1 0x4 CALLDATASIZE LT PUSH2 0x4C JUMPI PUSH1 0x0 CALLDATALOAD PUSH1 0xE0 SHR DUP1 PUSH4 0x7546172 EQ PUSH2 0x51 JUMPI DUP1 PUSH4 0x27E235E3 EQ PUSH2 0x6F JUMPI DUP1 PUSH4 0x40C10F19 EQ PUSH2 0x9F JUMPI DUP1 PUSH4 0xA9059CBB EQ PUSH2 0xBB JUMPI JUMPDEST PUSH1 0x0 DUP1 REVERT JUMPDEST PUSH2 0x59 PUSH2 0xD7 JUMP JUMPDEST PUSH1 0x40 MLOAD PUSH2 0x66 SWAP2 SWAP1 PUSH2 0x47B JUMP JUMPDEST PUSH1 0x40 MLOAD DUP1 SWAP2 SUB SWAP1 RETURN JUMPDEST PUSH2 0x89 PUSH1 0x4 DUP1 CALLDATASIZE SUB DUP2 ADD SWAP1 PUSH2 0x84 SWAP2 SWAP1 PUSH2 0x3D5 JUMP JUMPDEST PUSH2 0xFB JUMP JUMPDEST PUSH1 0x40 MLOAD PUSH2 0x96 SWAP2 SWAP1 PUSH2 0x4ED JUMP JUMPDEST PUSH1 0x40 MLOAD DUP1 SWAP2 SUB SWAP1 RETURN JUMPDEST PUSH2 0xB9 PUSH1 0x4 DUP1 CALLDATASIZE SUB DUP2 ADD SWAP1 PUSH2 0xB4 SWAP2 SWAP1 PUSH2 0x3FE JUMP JUMPDEST PUSH2 0x113 JUMP JUMPDEST STOP JUMPDEST PUSH2 0xD5 PUSH1 0x4 DUP1 CALLDATASIZE SUB DUP2 ADD SWAP1 PUSH2 0xD0 SWAP2 SWAP1 PUSH2 0x3FE JUMP JUMPDEST PUSH2 0x1FB JUMP JUMPDEST STOP JUMPDEST PUSH1 0x0 DUP1 SLOAD SWAP1 PUSH2 0x100 EXP SWAP1 DIV PUSH20 0xFFFFFFFFFFFFFFFFFFFFFFFFFFFFFFFFFFFFFFFF AND DUP2 JUMP JUMPDEST PUSH1 0x1 PUSH1 0x20 MSTORE DUP1 PUSH1 0x0 MSTORE PUSH1 0x40 PUSH1 0x0 KECCAK256 PUSH1 0x0 SWAP2 POP SWAP1 POP SLOAD DUP2 JUMP JUMPDEST PUSH1 0x0 DUP1 SLOAD SWAP1 PUSH2 0x100 EXP SWAP1 DIV PUSH20 0xFFFFFFFFFFFFFFFFFFFFFFFFFFFFFFFFFFFFFFFF AND PUSH20 0xFFFFFFFFFFFFFFFFFFFFFFFFFFFFFFFFFFFFFFFF AND CALLER PUSH20 0xFFFFFFFFFFFFFFFFFFFFFFFFFFFFFFFFFFFFFFFF AND EQ PUSH2 0x1A1 JUMPI PUSH1 0x40 MLOAD PUSH32 0x8C379A000000000000000000000000000000000000000000000000000000000 DUP2 MSTORE PUSH1 0x4 ADD PUSH2 0x198 SWAP1 PUSH2 0x4CD JUMP JUMPDEST PUSH1 0x40 MLOAD DUP1 SWAP2 SUB SWAP1 REVERT JUMPDEST DUP1 PUSH1 0x1 PUSH1 0x0 DUP5 PUSH20 0xFFFFFFFFFFFFFFFFFFFFFFFFFFFFFFFFFFFFFFFF AND PUSH20 0xFFFFFFFFFFFFFFFFFFFFFFFFFFFFFFFFFFFFFFFF AND DUP2 MSTORE PUSH1 0x20 ADD SWAP1 DUP2 MSTORE PUSH1 0x20 ADD PUSH1 0x0 KECCAK256 PUSH1 0x0 DUP3 DUP3 SLOAD PUSH2 0x1F0 SWAP2 SWAP1 PUSH2 0x542 JUMP JUMPDEST SWAP3 POP POP DUP2 SWAP1 SSTORE POP POP POP JUMP JUMPDEST PUSH1 0x1 PUSH1 0x0 CALLER PUSH20 0xFFFFFFFFFFFFFFFFFFFFFFFFFFFFFFFFFFFFFFFF AND PUSH20 0xFFFFFFFFFFFFFFFFFFFFFFFFFFFFFFFFFFFFFFFF AND DUP2 MSTORE PUSH1 0x20 ADD SWAP1 DUP2 MSTORE PUSH1 0x20 ADD PUSH1 0x0 KECCAK256 SLOAD DUP2 GT ISZERO PUSH2 0x2C0 JUMPI DUP1 PUSH1 0x1 PUSH1 0x0 CALLER PUSH20 0xFFFFFFFFFFFFFFFFFFFFFFFFFFFFFFFFFFFFFFFF AND PUSH20 0xFFFFFFFFFFFFFFFFFFFFFFFFFFFFFFFFFFFFFFFF AND DUP2 MSTORE PUSH1 0x20 ADD SWAP1 DUP2 MSTORE PUSH1 0x20 ADD PUSH1 0x0 KECCAK256 SLOAD PUSH1 0x40 MLOAD PUSH32 0xCF47918100000000000000000000000000000000000000000000000000000000 DUP2 MSTORE PUSH1 0x4 ADD PUSH2 0x2B7 SWAP3 SWAP2 SWAP1 PUSH2 0x508 JUMP JUMPDEST PUSH1 0x40 MLOAD DUP1 SWAP2 SUB SWAP1 REVERT JUMPDEST DUP1 PUSH1 0x1 PUSH1 0x0 CALLER PUSH20 0xFFFFFFFFFFFFFFFFFFFFFFFFFFFFFFFFFFFFFFFF AND PUSH20 0xFFFFFFFFFFFFFFFFFFFFFFFFFFFFFFFFFFFFFFFF AND DUP2 MSTORE PUSH1 0x20 ADD SWAP1 DUP2 MSTORE PUSH1 0x20 ADD PUSH1 0x0 KECCAK256 PUSH1 0x0 DUP3 DUP3 SLOAD PUSH2 0x30F SWAP2 SWAP1 PUSH2 0x598 JUMP JUMPDEST SWAP3 POP POP DUP2 SWAP1 SSTORE POP DUP1 PUSH1 0x1 PUSH1 0x0 DUP5 PUSH20 0xFFFFFFFFFFFFFFFFFFFFFFFFFFFFFFFFFFFFFFFF AND PUSH20 0xFFFFFFFFFFFFFFFFFFFFFFFFFFFFFFFFFFFFFFFF AND DUP2 MSTORE PUSH1 0x20 ADD SWAP1 DUP2 MSTORE PUSH1 0x20 ADD PUSH1 0x0 KECCAK256 PUSH1 0x0 DUP3 DUP3 SLOAD PUSH2 0x365 SWAP2 SWAP1 PUSH2 0x542 JUMP JUMPDEST SWAP3 POP POP DUP2 SWAP1 SSTORE POP PUSH32 0x3990DB2D31862302A685E8086B5755072A6E2B5B780AF1EE81ECE35EE3CD3345 CALLER DUP4 DUP4 PUSH1 0x40 MLOAD PUSH2 0x39F SWAP4 SWAP3 SWAP2 SWAP1 PUSH2 0x496 JUMP JUMPDEST PUSH1 0x40 MLOAD DUP1 SWAP2 SUB SWAP1 LOG1 POP POP JUMP JUMPDEST PUSH1 0x0 DUP2 CALLDATALOAD SWAP1 POP PUSH2 0x3BA DUP2 PUSH2 0x686 JUMP JUMPDEST SWAP3 SWAP2 POP POP JUMP JUMPDEST PUSH1 0x0 DUP2 CALLDATALOAD SWAP1 POP PUSH2 0x3CF DUP2 PUSH2 0x69D JUMP JUMPDEST SWAP3 SWAP2 POP POP JUMP JUMPDEST PUSH1 0x0 PUSH1 0x20 DUP3 DUP5 SUB SLT ISZERO PUSH2 0x3E7 JUMPI PUSH1 0x0 DUP1 REVERT JUMPDEST PUSH1 0x0 PUSH2 0x3F5 DUP5 DUP3 DUP6 ADD PUSH2 0x3AB JUMP JUMPDEST SWAP2 POP POP SWAP3 SWAP2 POP POP JUMP JUMPDEST PUSH1 0x0 DUP1 PUSH1 0x40 DUP4 DUP6 SUB SLT ISZERO PUSH2 0x411 JUMPI PUSH1 0x0 DUP1 REVERT JUMPDEST PUSH1 0x0 PUSH2 0x41F DUP6 DUP3 DUP7 ADD PUSH2 0x3AB JUMP JUMPDEST SWAP3 POP POP PUSH1 0x20 PUSH2 0x430 DUP6 DUP3 DUP7 ADD PUSH2 0x3C0 JUMP JUMPDEST SWAP2 POP POP SWAP3 POP SWAP3 SWAP1 POP JUMP JUMPDEST PUSH2 0x443 DUP2 PUSH2 0x5CC JUMP JUMPDEST DUP3 MSTORE POP POP JUMP JUMPDEST PUSH1 0x0 PUSH2 0x456 PUSH1 0x38 DUP4 PUSH2 0x531 JUMP JUMPDEST SWAP2 POP PUSH2 0x461 DUP3 PUSH2 0x637 JUMP JUMPDEST PUSH1 0x40 DUP3 ADD SWAP1 POP SWAP2 SWAP1 POP JUMP JUMPDEST PUSH2 0x475 DUP2 PUSH2 0x5FE JUMP JUMPDEST DUP3 MSTORE POP POP JUMP JUMPDEST PUSH1 0x0 PUSH1 0x20 DUP3 ADD SWAP1 POP PUSH2 0x490 PUSH1 0x0 DUP4 ADD DUP5 PUSH2 0x43A JUMP JUMPDEST SWAP3 SWAP2 POP POP JUMP JUMPDEST PUSH1 0x0 PUSH1 0x60 DUP3 ADD SWAP1 POP PUSH2 0x4AB PUSH1 0x0 DUP4 ADD DUP7 PUSH2 0x43A JUMP JUMPDEST PUSH2 0x4B8 PUSH1 0x20 DUP4 ADD DUP6 PUSH2 0x43A JUMP JUMPDEST PUSH2 0x4C5 PUSH1 0x40 DUP4 ADD DUP5 PUSH2 0x46C JUMP JUMPDEST SWAP5 SWAP4 POP POP POP POP JUMP JUMPDEST PUSH1 0x0 PUSH1 0x20 DUP3 ADD SWAP1 POP DUP2 DUP2 SUB PUSH1 0x0 DUP4 ADD MSTORE PUSH2 0x4E6 DUP2 PUSH2 0x449 JUMP JUMPDEST SWAP1 POP SWAP2 SWAP1 POP JUMP JUMPDEST PUSH1 0x0 PUSH1 0x20 DUP3 ADD SWAP1 POP PUSH2 0x502 PUSH1 0x0 DUP4 ADD DUP5 PUSH2 0x46C JUMP JUMPDEST SWAP3 SWAP2 POP POP JUMP JUMPDEST PUSH1 0x0 PUSH1 0x40 DUP3 ADD SWAP1 POP PUSH2 0x51D PUSH1 0x0 DUP4 ADD DUP6 PUSH2 0x46C JUMP JUMPDEST PUSH2 0x52A PUSH1 0x20 DUP4 ADD DUP5 PUSH2 0x46C JUMP JUMPDEST SWAP4 SWAP3 POP POP POP JUMP JUMPDEST PUSH1 0x0 DUP3 DUP3 MSTORE PUSH1 0x20 DUP3 ADD SWAP1 POP SWAP3 SWAP2 POP POP JUMP JUMPDEST PUSH1 0x0 PUSH2 0x54D DUP3 PUSH2 0x5FE JUMP JUMPDEST SWAP2 POP PUSH2 0x558 DUP4 PUSH2 0x5FE JUMP JUMPDEST SWAP3 POP DUP3 PUSH32 0xFFFFFFFFFFFFFFFFFFFFFFFFFFFFFFFFFFFFFFFFFFFFFFFFFFFFFFFFFFFFFFFF SUB DUP3 GT ISZERO PUSH2 0x58D JUMPI PUSH2 0x58C PUSH2 0x608 JUMP JUMPDEST JUMPDEST DUP3 DUP3 ADD SWAP1 POP SWAP3 SWAP2 POP POP JUMP JUMPDEST PUSH1 0x0 PUSH2 0x5A3 DUP3 PUSH2 0x5FE JUMP JUMPDEST SWAP2 POP PUSH2 0x5AE DUP4 PUSH2 0x5FE JUMP JUMPDEST SWAP3 POP DUP3 DUP3 LT ISZERO PUSH2 0x5C1 JUMPI PUSH2 0x5C0 PUSH2 0x608 JUMP JUMPDEST JUMPDEST DUP3 DUP3 SUB SWAP1 POP SWAP3 SWAP2 POP POP JUMP JUMPDEST PUSH1 0x0 PUSH2 0x5D7 DUP3 PUSH2 0x5DE JUMP JUMPDEST SWAP1 POP SWAP2 SWAP1 POP JUMP JUMPDEST PUSH1 0x0 PUSH20 0xFFFFFFFFFFFFFFFFFFFFFFFFFFFFFFFFFFFFFFFF DUP3 AND SWAP1 POP SWAP2 SWAP1 POP JUMP JUMPDEST PUSH1 0x0 DUP2 SWAP1 POP SWAP2 SWAP1 POP JUMP JUMPDEST PUSH32 0x4E487B7100000000000000000000000000000000000000000000000000000000 PUSH1 0x0 MSTORE PUSH1 0x11 PUSH1 0x4 MSTORE PUSH1 0x24 PUSH1 0x0 REVERT JUMPDEST PUSH32 0x6F6E6C79207468652063726561746F72206F662074686520636F6E7472616374 PUSH1 0x0 DUP3 ADD MSTORE PUSH32 0x20636F756C6420637265617465206E657720746F6B656E730000000000000000 PUSH1 0x20 DUP3 ADD MSTORE POP JUMP JUMPDEST PUSH2 0x68F DUP2 PUSH2 0x5CC JUMP JUMPDEST DUP2 EQ PUSH2 0x69A JUMPI PUSH1 0x0 DUP1 REVERT JUMPDEST POP JUMP JUMPDEST PUSH2 0x6A6 DUP2 PUSH2 0x5FE JUMP JUMPDEST DUP2 EQ PUSH2 0x6B1 JUMPI PUSH1 0x0 DUP1 REVERT JUMPDEST POP JUMP INVALID LOG2 PUSH5 0x6970667358 0x22 SLT KECCAK256 0x5C 0x1F 0xC7 0x2B ORIGIN 0xCC CODECOPY DUP12 CALLDATACOPY PUSH6 0x992DD4CCBB70 0xCC DUP12 0xE6 MUL EXTCODEHASH 0xE8 0xDC 0x4C 0xAF EXP 0xEF DUP12 0x5D 0xE7 SWAP12 0xBF PUSH5 0x736F6C6343 STOP ADDMOD DIV STOP CALLER "
				},
				"gasEstimates": {
					"creation": {
						"codeDepositCost": "354000",
						"executionCost": "21259",
						"totalCost": "375259"
					},
					"external": {
						"balances(address)": "1514",
						"mint(address,uint256)": "infinite",
						"minter()": "1189",
						"transfer(address,uint256)": "infinite"
					}
				},
				"methodIdentifiers": {
					"balances(address)": "27e235e3",
					"mint(address,uint256)": "40c10f19",
					"minter()": "07546172",
					"transfer(address,uint256)": "a9059cbb"
				}
			},
			"storageLayout": {
				"storage": [
					{
						"astId": 3,
						"contract": "solidityTutorial/test.sol:CoinTest",
						"label": "minter",
						"offset": 0,
						"slot": "0",
						"type": "t_address"
					},
					{
						"astId": 7,
						"contract": "solidityTutorial/test.sol:CoinTest",
						"label": "balances",
						"offset": 0,
						"slot": "1",
						"type": "t_mapping(t_address,t_uint256)"
					}
				],
				"types": {
					"t_address": {
						"encoding": "inplace",
						"label": "address",
						"numberOfBytes": "20"
					},
					"t_mapping(t_address,t_uint256)": {
						"encoding": "mapping",
						"key": "t_address",
						"label": "mapping(address => uint256)",
						"numberOfBytes": "32",
						"value": "t_uint256"
					},
					"t_uint256": {
						"encoding": "inplace",
						"label": "uint256",
						"numberOfBytes": "32"
					}
				}
			},
			"userdoc": {
				"kind": "user",
				"methods": {},
				"version": 1
			}
		}
	}
}